:020000040800F2
:1000000008070020D5010008151A0008CF170008BE
:10001000111A00080F050008691B00080000000005
:100020000000000000000000000000001B1A000893
:100030001305000800000000191A00081D1A000826
:10004000EF010008EF010008EF010008EF010008D0
:10005000EF010008EF010008EF010008EF010008C0
:10006000EF01000815050008EF010008EF01000886
:10007000EF010008EF010008EF010008EF010008A0
:10008000EF010008EF010008EF010008EF01000890
:10009000EF010008EF010008EF0100081F0500084C
:1000A000EF010008EF010008EF010008EF01000870
:1000B000EF010008EF010008EF010008EF01000860
:1000C000EF010008EF010008EF010008EF01000850
:1000D000EF010008EF010008EF010008EF01000840
:1000E000EF010008EF010008EF010008EF01000830
:1000F000EF010008EF010008EF010008EF01000820
:10010000EF010008EF010008EF010008EF0100080F
:10011000EF010008EF010008EF010008EF010008FF
:10012000EF010008EF010008EF010008EF010008EF
:1001300000F002F800F03FF80AA090E8000C8244BA
:100140008344AAF10107DA4501D100F034F8AFF297
:10015000090EBAE80F0013F0010F18BFFB1A43F0A5
:1001600001031847E41E0000041F0000103A24BFDA
:1001700078C878C1FAD8520724BF30C830C144BF0C
:1001800004680C607047000000230024002500264E
:10019000103A28BF78C1FBD8520728BF30C148BFEA
:1001A0000B607047642900F07D80002070471FB508
:1001B0001FBD10B510BD00F070F91146FFF7F7FF35
:1001C00001F01AFF00F08EF903B4FFF7F2FF03BC51
:1001D00000F096F90948804709480047FEE7FEE726
:1001E000FEE7FEE7FEE7FEE7FEE7FEE7FEE7FEE7E7
:1001F00004480549054A064B70470000251A0008C7
:100200003101000808010020080700200803002031
:10021000080300200FB41CB5074B06AA7B446946AF
:100220000090059800F021F90020694600F030F9AF
:100230001CBC5DF814FB0000710200002DE9F041C8
:100240000E460446002020622046E168884730B30D
:10025000252805D0D4E901219047206A401CF2E707
:10026000E168204600278847050018D0A5F1410025
:10027000192802D820354FF4006732462946204617
:100280002760FFF78FFF40B1012804D0F61D26F04C
:1002900007060836D8E7361DD6E72846DAE7206A8B
:1002A000BDE8F0812DE9F04106460024106875296B
:1002B000314616A510D0AFF30080002802DA404284
:1002C00013A507E031688A0701D512A502E04907A6
:1002D00004D511A5012401E0AFF3008000210A221A
:1002E00006F1240709E0B0FBF2FCB0FBF2F302FBDD
:1002F0001C00303078541846491C0028F3D123469E
:100300002A463046BDE8F04100F051B80000000038
:100310002D0000002B0000002000000010B5431C41
:1003200002E010F8011B71B18107FAD14FF00132E0
:1003300002C88C1A8C4314EAC211F9D0C01A0A06FA
:1003400003D0C01E10BDC01A10BD0A0401D0801E0B
:1003500010BD0902FCD0401E10BD4FF0000200B5D8
:10036000134694469646203922BFA0E80C50A0E8D8
:100370000C50B1F12001BFF4F7AF090728BFA0E886
:100380000C5048BF0CC05DF804EB890028BF40F852
:10039000042B08BF704748BF20F8022B11F0804F94
:1003A00018BF00F8012B70477047704770472DE960
:1003B000F0470D4699469246044600F1240801682C
:1003C000880604D5E06921F01001216000E00120D9
:1003D000A84201DD471B00E00027A1697A1902EB62
:1003E0000900081AA0612078C00602D42046AFF3A5
:1003F0000080002608E0D4E901211AF806009047A1
:10040000206A401C761C20624E45F4DB2078C00632
:100410000AD52046AFF3008006E0D4E90121302060
:100420009047206A401C2062381EA7F10107F4DCC7
:1004300007E0D4E9012118F805009047206A401C24
:100440002062281EA5F10105F3DC2046AFF30080F1
:100450002078000602D50220BDE8F0870120FBE7E6
:1004600001694A1C02610878704700B58FB0CDE978
:1004700001310021059105497944CDE90310114668
:100480006846FFF7DBFE0FB000BD0000E5FFFFFF91
:100490000A6802F8010B0A607047754600F02CF8F4
:1004A000AE4605006946534620F00700854618B061
:1004B00020B5FFF79DFEBDE820404FF000064FF04D
:1004C00000074FF000084FF0000B21F00701AC4689
:1004D000ACE8C009ACE8C009ACE8C009ACE8C009A8
:1004E0008D46704710B50446AFF300802046BDE846
:1004F0001040FFF769BE000000487047A8000020C8
:1005000001491820ABBEFEE726000200704700BF7D
:10051000FEE7704710B5082000F03AF810BD10B59E
:10052000202000F035F810BD72B600BFFEE70000D5
:1005300070B50446082C25D10821134800F0D6F9DF
:1005400005461021104800F0D1F90646012D0BD1C7
:100550002EB90E480068401C0C49086004E00B48A6
:100560000068401E094908605DB92EB90748006857
:10057000401E0649086004E004480068401C034926
:10058000086000BF70BD0000000C014000000020AA
:1005900010B5044604480068204020B102480460B9
:1005A0002046FFF7C5FF10BD140401402DE9F847B0
:1005B000024600239C467BE14FF0010808FA03F451
:1005C000D1F8008008EA0400A0427DD1DFF8F4A24F
:1005D000D1F80480A8EB0A09D0453AD014DCB8F170
:1005E000030F50D009DCB8F1000F31D0B8F1010F82
:1005F0001CD0B8F1020F49D120E0B8F1110F18D08A
:10060000B8F1120F42D11EE0B9F5881F25D006DCE3
:10061000B9F5803F20D0B9F5801F37D11AE0B9F580
:10062000001F18D0B9F5041F30D117E0D1F80CC065
:100630002DE0D1F80C8008F1040C28E0D1F80C80F2
:1006400008F1080C23E0D1F80C8008F10C0C1EE036
:1006500000BF00BF00BF00BF00BF00BFD1F80880CF
:10066000B8F1000F02D14FF0040C0BE0D1F8088074
:10067000B8F1010F03D14FF0080C146102E04FF004
:10068000080C546103E04FF0000C00E000BF00BF15
:10069000FF2801D8904601E002F104084646FF28F1
:1006A00002D84FEA830803E0A3F108084FEA88085C
:1006B0004746D6F800804FF00F0909FA07F928EAF3
:1006C00009080CFA07F900E07AE048EA0908C6F8D8
:1006D0000080D1F8048008F08058B8F1805F6FD1B5
:1006E00000BFDFF8E481D8F8188048F00108DFF88F
:1006F000D891C9F81880C846D8F8188008F00108C1
:10070000CDF8008000BF00BF4FEAB9384FEA930927
:1007100058F829504FEA83784FEA18794FF00F08BC
:1007200008FA09F825EA0805DFF8A081424502D158
:100730004FF0000824E0DFF89881424502D14FF0E5
:1007400001081DE0DFF88C81424502D14FF002081C
:1007500016E0DFF88481424502D14FF003080FE034
:10076000DFF87881424502D14FF0040808E0DFF855
:100770007081424502D14FF0050801E04FF00608B4
:100780004FEA83794FEA197908FA09F848EA05052A
:10079000DFF850814FEA930948F82950D1F80480D6
:1007A00008F48018B8F5801F0BD1DFF83C81D8F829
:1007B000008048EA0008DFF83091C9F800800AE0BC
:1007C00075E0DFF82481D8F8008028EA0008DFF817
:1007D0001891C9F80080D1F8048008F40018B8F521
:1007E000001F0ED1DFF8008108F10408D8F800805E
:1007F00048EA0008DFF8F09009F10409C9F8008020
:100800000DE0DFF8E48008F10408D8F8008028EA59
:100810000008DFF8D49009F10409C9F80080D1F884
:10082000048008F40038B8F5003F0ED1DFF8B88036
:10083000A8F10408D8F8008048EA0008DFF8A8907A
:10084000A9F10409C9F800800DE0DFF89C80A8F147
:100850000408D8F8008028EA0008DFF88C90A9F195
:100860000409C9F80080D1F8048008F48038B8F58C
:10087000803F0ED1DFF87080A8F10808D8F800801A
:1008800048EA0008DFF86090A9F10809C9F800807B
:100890000DE0DFF85480A8F10808D8F8008028EAB5
:1008A0000008DFF84490A9F10809C9F800805B1C32
:1008B000D1F8008028FA03F8B8F1000F7FF47CAE7D
:1008C000BDE8F88700001110001002400008014048
:1008D000000C0140001001400014014000180140CC
:1008E000001C0140080001400804014002469368D2
:1008F0000B400BB1012000E0002070470AB10161FC
:1009000001E00B0403617047014800687047000074
:100910000800002003480068034909780844014999
:1009200008607047080000201000002010B508483B
:10093000006840F0100006490860032000F0A8F8A5
:100940000F2000F007F800F02BF8002010BD000089
:100950000020024070B504460E4800784FF47A71CA
:10096000B1FBF0F00C490968B1FBF0F5284600F046
:10097000F9FB08B1012070BD102C07D200222146DE
:10098000501E00F047F80548046001E00120F2E73E
:100990000020F0E710000020140000200C000020D0
:1009A00008B500BF1148806940F001000F49886117
:1009B0000846806900F00100009000BF00BF00BF42
:1009C0000846C06940F08050C8610846C06900F020
:1009D0008050009000BF00BF00BF0549486820F06C
:1009E000E06040F00070486000BF08BD00100240A9
:1009F0000000014001460846002809DB00F01F0303
:100A000001229A4043099B0003F1E023C3F800212F
:100A100000BF70472DE9F05F80460D46164600275F
:100A200001F0E2FA074639462A46334601F007004C
:100A3000C0F1070ABAF1040F02D94FF0040A01E02D
:100A4000C0F1070AD14600F1040ABAF1070F02D239
:100A50004FF0000A01E0A0F1030AD4464FF0010A6A
:100A60000AFA09FAAAF1010A0AEA020A0AFA0CFACF
:100A70004FF0010B0BFA0CFBABF1010B0BEA030B74
:100A80004AEA0B042146404601F09AFABDE8F09F7D
:100A900000BF00F00702064B19684FF6FF0319402C
:100AA000044B0B4343EA0221014B196000BF70471E
:100AB0000CED00E00000FA0570B504460D460CB9D7
:100AC000012070BD5A48006800F00700A8420ED20D
:100AD0005748006820F00700284355490860084639
:100AE000006800F00700A84201D00120E9E7207863
:100AF00000F0020002281DD1207800F00400042834
:100B000005D14C48406840F4E0604A49486020788C
:100B100000F00800082805D14648406840F46050BD
:100B2000444948604348406820F0F000A168084309
:100B300040494860207800F0010078B360680128DF
:100B400006D13C48006800F4003090B90120B8E7B5
:100B50006068022806D13748006800F0007040B98C
:100B60000120AEE73348006800F0020008B9012018
:100B7000A7E73048406820F00300616808432D492A
:100B80004860FFF7C1FE064609E0FFF7BDFE801B87
:100B900041F28831884202D9032092E707E02548D4
:100BA000406800F00C006168B0EB810FEDD1204887
:100BB000006800F00700A8420ED91D48006820F028
:100BC000070028431A4908600846006800F007003B
:100BD000A84201D0012074E7207800F00400042826
:100BE00007D11448406820F4E060E16808431149E7
:100BF0004860207800F00800082808D10D484068B7
:100C000020F46050216940EAC1000A49486000F0C0
:100C10003FF808494968C1F30311074A515CC840CD
:100C20000649086006480068FFF794FE002048E780
:100C300000200240001002402E2000081400002076
:100C40000C000020014800687047000014000020DC
:100C500000B5FFF7F7FF04494968C1F30221034AD1
:100C6000515CC84000BD0000001002403E2000085A
:100C700000B5FFF7E7FF04494968C1F3C221034A01
:100C8000515CC84000BD0000001002403E2000083A
:100C900070B500210022002400230020134D696854
:100CA00001F00C05EDB1042D02D0082D1AD101E0A0
:100CB0000F4819E00F4DC1F38346AB5D01F4803559
:100CC00055B10A4D6D68C5F340450B4E725D084D38
:100CD0005D43B5FBF2F402E0084D03FB05F420464A
:100CE00002E000BF024800BF00BF70BD001002401C
:100CF00000127A001C2000082C20000800093D008A
:100D0000F8B504460CB90120F8BD207800F00100C8
:100D1000002878D0F848406800F00C0004280CD077
:100D2000F548406800F00C00082811D1F2484068EE
:100D300000F48030B0F5803F0AD1EF48006800F43D
:100D4000003000285FD0606800285CD10120DBE71C
:100D500000BF6068B0F5803F06D1E748006840F406
:100D60008030E549086028E0606858B9E2480068CA
:100D700020F48030E04908600846006820F48020B4
:100D800008601AE06068B0F5A02F0BD1DA4800685F
:100D900040F48020D84908600846006840F480305C
:100DA00008600AE0D448006820F48030D249086026
:100DB0000846006820F48020086000BF606888B1A1
:100DC000FFF7A2FD054606E0FFF79EFD401B6428E5
:100DD00001D9032098E7C848006800F400300028D3
:100DE000F2D010E0FFF790FD054606E0FFF78CFD1E
:100DF000401B642801D9032086E7BF48006800F43F
:100E000000300028F2D1207800F00200022857D1EB
:100E1000B948406800F00C0050B1B748406800F095
:100E20000C00082818D1B448406800F4803098B904
:100E3000B148006800F0020020B12069012801D00B
:100E4000012061E7AC48006820F0F800616940EAE1
:100E5000C100A949086033E02069E8B10120A74931
:100E60000860FFF751FD054606E0FFF74DFD401B0A
:100E7000022801D9032047E79F48006800F00200DC
:100E80000028F2D09C48006820F0F800616940EA30
:100E9000C1009949086013E0002098490860FFF7F5
:100EA00033FD054606E0FFF72FFD401B022801D960
:100EB000032029E79048006800F002000028F2D1E2
:100EC000207800F0080008282DD1A069B8B10120D1
:100ED0008B490860FFF718FD054606E0FFF714FD93
:100EE000401B022801D903200EE78348406A00F026
:100EF00002000028F2D0012000F086FE13E000205E
:100F00007F490860FFF700FD054606E0FFF7FCFC9F
:100F1000401B022801D90320F6E67748406A00F01A
:100F200002000028F2D1207800F00400042873D1D8
:100F300000277148C06900F0805070B900BF6E484A
:100F4000C06940F080506C49C8610846C06900F033
:100F50008050009000BF00BF01276A48006800F47D
:100F60008070B0B96748006840F4807065490860D7
:100F7000FFF7CAFC054606E0FFF7C6FC401B6428E5
:100F800001D90320C0E65F48006800F480700028A3
:100F9000F2D000BFE068012806D15748006A40F04F
:100FA00001005549086227E0E06858B95248006AD4
:100FB00020F00100504908620846006A20F0040051
:100FC000086219E0E06805280BD14B48006A40F040
:100FD0000400494908620846006A40F001000862BE
:100FE0000AE04548006A20F00100434908620846CB
:100FF000006A20F00400086200BFE068A0B1FFF7BB
:1010000083FC054609E0FFF77FFC401B41F2883175
:10101000884202D9032077E622E03748006A00F0D0
:1010200002000028EFD012E0FFF76EFC054608E052
:10103000FFF76AFC401B41F28831884201D9032046
:1010400062E62D48006A00F002000028F0D1012F6E
:1010500005D12948C06920F080502749C86100BFE8
:10106000E069C8B32448406800F00C00082860D04C
:10107000E069022848D1002020490866FFF744FCB7
:10108000054606E0FFF740FC401B022801D903207B
:101090003AE61948006800F000700028F2D1206A92
:1010A000B0F5803F07D11448406820F40030A168B3
:1010B000084311494860D4E9080108430E494968CA
:1010C00021F4741108430C49486001200B4908665B
:1010D000FFF71AFC054607E03DE0FFF715FC401B53
:1010E000022801D903200FE60348006800F00070D1
:1010F0000028F2D02FE00000001002400000424221
:101100008004424200700040002014490866FFF746
:10111000FBFB054606E0FFF7F7FB401B022801D961
:101120000320F1E50E48006800F000700028F2D1BD
:1011300011E0E069012800D1E6E50948466806F4B7
:101140008031206A814204D106F47011606A8142C4
:1011500001D00120D8E50020D6E500000000424281
:101160000010024070B504462546681EB0F1807F2D
:1011700001D301200FE0681E4FF0E02148610F21EC
:101180004FF0FF3000F01CFF00204FF0E02188619D
:1011900007200861002070BD10B50346002200BF83
:1011A00093F83C00012801D1022010BD012083F8F2
:1011B0003C0000BF22F0FF00CC6840EA040222F4A9
:1011C00040708C6840EA040222F480604C6840EA77
:1011D000040222F400600C6840EA040222F4805009
:1011E0000C6940EA040222F400504C6940EA04020F
:1011F00022F48040CC6940EA04021868426400BFCF
:10120000002083F83C0000BF00BFCEE730B50246A7
:101210000B4600BF92F83C00012801D1022030BDEE
:10122000012082F83C0000BF022082F83D001068D7
:1012300044681068816824F07004186804431068DA
:101240004460144D1068A84213D0134D1068A84292
:101250000FD01068B0F1804F0BD0104D1068A8422D
:1012600007D00F4D1068A84203D00E4D1068A84259
:1012700005D121F080015868014310688160012088
:1012800082F83D0000BF002082F83C0000BF00BF94
:10129000C5E70000002C014000340140000400407C
:1012A00000080040000C004010B504460CB90120B5
:1012B00010BD94F83D0028B9002084F83C00204679
:1012C00000F026F8022084F83D00211D206800F07F
:1012D000ABFB012084F8460000BF84F83E000121EA
:1012E0003F200155402001554120015500BF00BF5E
:1012F000012084F842004320015544200155452037
:10130000015500BF012084F83D000020D0E7000017
:1013100008B5094A016891420DD100BF07498969A2
:1013200041F40051054A91611146896901F4005167
:10133000009100BF00BF08BD003401400010024012
:101340002DE9F04104460D46002700BF94F83C000B
:10135000012802D10220BDE8F081012084F83C0080
:1013600000BF022084F83D002068866826F07706DA
:1013700026F47F46206886602868502833D00CDC2D
:10138000202850D004DC00284BD0102851D149E04F
:10139000302849D040284CD139E060282DD0702821
:1013A00007D0B0F5805F03D0B0F5005F41D10DE00C
:1013B00041E0D5E902136A68206800F08BFB2068E1
:1013C000866846F077062068866034E0D5E9021327
:1013D0006A68206800F07EFB2068806840F48040E6
:1013E0002168886027E0EA686968206800F0C7FC27
:1013F0005021206800F0BAFC1DE0EA6869682068A6
:1014000000F0D0FC6021206800F0B0FC13E0EA6836
:101410006968206800F0B3FC4021206800F0A6FC59
:1014200009E000BF00BF00BF2968206800F09EFCF3
:1014300001E0012700BF00BF012084F83D0000BF8C
:10144000002084F83C0000BF384684E710B586B021
:101450000446002002900390049005900E492068F5
:10146000884216D100BF0D48806940F010000B493A
:1014700088610846806900F01000019000BF00BF3D
:10148000C020029002200390059002A90448FFF7B3
:101490008DF806B010BD000000340140001002407D
:1014A000001001402DE9F04104460D461646002784
:1014B00000BF94F83C00012802D10220BDE8F08171
:1014C000012084F83C0000BF36B1042E1BD0082E4A
:1014D00031D00C2E5ED145E02946206800F0A8FBF3
:1014E0002068806940F00800216888612068806970
:1014F00020F0040021688861206880692969084318
:101500002168886148E02946206800F0EFFA2068E9
:10151000806940F40060216888612068806920F457
:1015200080602168886120688069296940EA01201B
:101530002168886130E02946206800F0B1FB20680E
:10154000C06940F008002168C8612068C06920F0C7
:1015500004002168C8612068C069296908432168BE
:10156000C86119E02946206800F0D6FB2068C069F0
:1015700040F400602168C8612068C06920F4806080
:101580002168C8612068C069296940EA0120216892
:10159000C86101E0012700BF00BF00BF002084F840
:1015A0003C0000BF384689E710B504460CB901205D
:1015B00010BD94F83D0028B9002084F83C00204676
:1015C00000F025F8022084F83D00211D206800F07D
:1015D0002BFA012084F8460000BF84F83E00012168
:1015E0003F200155402001554120015500BF00BF5B
:1015F000012084F842004320015544200155452034
:10160000015500BF012084F83D000020D0E770475D
:1016100010B504460CB9012010BDA06900B100E06E
:1016200000BF94F8410028B9002084F8400020460B
:1016300000F02AF8242084F841002068C06820F4D3
:1016400000502168C860204600F0C0FB2068006997
:1016500020F49040216808612068406920F02A0049
:10166000216848612068C06840F400502168C86063
:1016700000206064202084F8410084F842000020AB
:10168000606300BFC8E7000010B586B004460020C4
:1016900002900390049005901A49206888422ED148
:1016A00000BF1948806940F48040174988610846A6
:1016B000806900F48040019000BF00BF00BF084671
:1016C000806940F0040088610846806900F00400E9
:1016D000019000BF00BF4815029002200390032034
:1016E000059002A90948FEF761FF4FF4806002905F
:1016F00000200390049002A90448FEF757FF06B0AB
:1017000010BD0000003801400010024000080140F8
:101710002DE9F84F04460E46174699464FF0000A49
:1017200094F84100202850D106B117B90120BDE836
:10173000F88F00206064212084F84100FFF7E4F86E
:101740008246A784E784A068B0F5805F04D1206951
:1017500010B90025B04602E035464FF000081EE003
:101760005346002280212046CDF8009000F0E2FB95
:1017700020B1202084F841000320D8E745B9B8F80B
:101780000000C0F308002168486008F1020803E087
:101790002878216848606D1CE08C401EE084E08C55
:1017A0000028DDD15346002240212046CDF800908C
:1017B00000F0C0FB20B1202084F841000320B6E7F0
:1017C000202084F841000020B1E70220AFE700BFED
:1017D000FEE7000000B585B0002001900290039064
:1017E000049000BF3F48806940F020003D49886177
:1017F0000846806900F02000009000BF00BF00BFD5
:101800000846806940F0080088610846806900F059
:101810000800009000BF00BF00BF0846806940F08C
:10182000100088610846806900F01000009000BF39
:1018300000BF00BF0846806940F004008861084688
:10184000806900F00400009000BF00BF00224FF448
:1018500040512548FFF752F800224FF440612348D9
:10186000FFF74CF84FF44050019001200290002007
:1018700003900320049001A91B48FEF797FE4FF444
:10188000406001900120029000200390032004900A
:1018900001A91648FEF78AFE2820019014480290FC
:1018A0000020039001A91048FEF780FE502001900F
:1018B00000200290039001A90B48FEF777FE00225A
:1018C00011460920FFF7A6F80920FFF793F8002238
:1018D00011461720FFF79EF81720FFF78BF805B089
:1018E00000BD000000100240000C0140001001404B
:1018F0000000311000B595B00020119012901390A7
:1019000014900F9010901C2108A8FEF726FD2021AE
:101910006846FEF722FD2E482E49086047204860A1
:1019200000212C4881606321C16000210161416177
:101930008161FFF7B9FC08B1FEF7F6FD4FF4805066
:10194000119011A92348FFF7FBFC08B1FEF7ECFD4D
:101950002048FFF729FE08B1FEF7E6FD00200F90B2
:1019600010900FA91B48FFF751FC08B1FEF7DCFDF2
:1019700060200890002009900A900B900C900D9028
:101980000E90002208A91348FFF78CFD08B1FEF75E
:10199000CBFD042208A90F48FFF784FD08B1FEF72C
:1019A000C3FD0020009001900290039004904FF43A
:1019B000005005900020079069460648FFF7ECFBB1
:1019C00008B1FEF7B1FD0348FFF740FD15B000BDBB
:1019D000003401401800002010B50B480B49086086
:1019E0004FF4E1304860002108488160C160016126
:1019F0000C21416100218161C161FFF709FE08B13D
:101A0000FEF792FD10BD000000380140600000208C
:101A100000BFFEE700BFFEE77047704710B5FEF756
:101A200079FF10BD7047000010B50268244B984242
:101A30000ED0244B98420BD0B0F1804F08D0224BEF
:101A4000984205D0214B984202D0214B984203D1B5
:101A500022F070024B681A43194B98420ED0194B72
:101A600098420BD0B0F1804F08D0174B984205D068
:101A7000164B984202D0164B984203D122F4407282
:101A8000CB681A4322F080034C6943EA04020260E7
:101A90008B68C3620B688362094B984202D0094B82
:101AA000984201D10B69036301234361036903F089
:101AB00001031BB1036923F00103036110BD0000A2
:101AC000002C0140003401400004004000080040A8
:101AD000000C004030B50C46816821F47F4142EA99
:101AE000032525432943816030BD000030B5026ADB
:101AF000056A25F0100505624368846924F4E04412
:101B000024F440740D6844EA052422F020028D6814
:101B100042EA0512124DA84200D103E0114DA8423D
:101B200007D100BF22F08002CD6842EA051222F000
:101B300040020B4DA84202D00A4DA84209D123F41D
:101B4000806323F400634D6943EA85038D6943EAAA
:101B50008503436084614D688563026230BD000087
:101B6000002C01400034014000BFFEE730B58DB0CD
:101B70000446224608A16846FEF74CFB6846FEF77D
:101B8000CDFB85B24FF0FF332A4669460348FFF785
:101B9000BFFD0DB030BD000025642C0060000020AA
:101BA00000B58FB0282105A8FEF7D7FB14216846A1
:101BB000FEF7D3FB0120059000040690002007905B
:101BC0000120099002200C90C1030D914FF4E01107
:101BD0000E9105A8FFF794F808B1FEF7A5FC0F20B9
:101BE000009002200190002002904FF4806003904A
:101BF0000020049002216846FEF75EFF08B1FEF760
:101C000093FC0FB000BD000008B508490968C90879
:101C10004FF47A72B1FBF2F14143009100BF00BF73
:101C200000994A1E00920029F9D108BD1400002035
:101C300030B5026A056A25F00105056243688469CA
:101C400024F0700424F003040D682C4322F00202F7
:101C50008D682A43104DA84200D103E00F4DA842E1
:101C600006D100BF22F00802CD682A4322F0040208
:101C7000094DA84202D0094DA84207D123F4807330
:101C800023F400734D692B438D692B4343608461BA
:101C90004D684563026230BD002C014000340140B4
:101CA00030B5026A056A25F4807505624368C46927
:101CB00024F0700424F003040D682C4322F4007215
:101CC0008D6842EA0522124DA84200D103E0114D71
:101CD000A84207D100BF22F40062CD6842EA052283
:101CE00022F480620A4DA84202D00A4DA84209D1CE
:101CF00023F4805323F400534D6943EA05138D699F
:101D000043EA05134360C4614D68C563026230BD98
:101D1000002C01400034014030B5036A056A25F407
:101D2000805505624468C26922F4E04222F44072A0
:101D30000D6842EA052223F400538D6843EA053317
:101D4000084DA84202D0084DA84204D124F4804492
:101D50004D6944EA85144460C2614D6805640362BC
:101D600030BD0000002C0140003401400A4681686B
:101D700021F0700142F0070319438160704730B5CC
:101D80000B461446026A056A25F001050562816961
:101D900021F0F00141EA041122F00A021A438161A4
:101DA000026230BD30B50B461446026A056A25F062
:101DB00010050562816921F4704141EA043122F085
:101DC000A00242EA03128161026230BD70B504468E
:101DD0002168096921F44051E268114322681161C8
:101DE0002269A1681143626941EA02052168C96854
:101DF00041F20C62914329432268D160216849690C
:101E000021F44071A2691143226851612D4A216871
:101E1000914202D1FEF72CFF01E0FEF719FF00EB23
:101E2000C00101EB001162689200B1FBF2F100EB1E
:101E3000C00202EB001263689B00B2FBF3F2642362
:101E4000B2FBF3F202EBC20303EB0212A1EB82013D
:101E5000322202EB01116422B1FBF2F101F0F00138
:101E600000EBC00202EB001263689B00B2FBF3F2CE
:101E70006423B2FBF3F201EB021200EBC00101EBB1
:101E8000001163689B00B1FBF3F100EBC00303EBAF
:101E900000136668B600B3FBF6F36426B3FBF6F3F3
:101EA00003EBC30606EB0313A1EB8301322303EB21
:101EB00001116423B1FBF3F101F00F011144226819
:101EC000916070BD0038014000BF00BF02680C3255
:101ED00052E8002F22F4907102680C3242E800139D
:101EE000002BF3D100BF00BF00BF0268143252E8DC
:101EF000002F22F001010268143242E80013002B87
:101F0000F3D100BF016B01290ED100BF00BF0268F1
:101F10000C3252E8002F22F0100102680C3242E825
:101F20000013002BF3D100BF202180F842100021C4
:101F3000016370472DE9F84304460D46174698465D
:101F4000089E31E0701C70B3FEF7DEFCA0EB0800C9
:101F5000B04200D816B90320BDE8F8832068C068F5
:101F600000F00400F8B1802D1ED0402D1CD0206858
:101F70000068C0F3C000B0B100BF0020009020682E
:101F80000068009020684068009000BF00BF2046B5
:101F9000FFF79AFF0820606400BF002084F840002B
:101FA00000BF0120D8E7FFE7206800682840A8426A
:101FB00001D1012000E00020B842C3D00020CBE7CF
:101FC00010B5002804DB0A07130E054A135406E077
:101FD0000A07140E034A00F00F031B1FD45410BD50
:101FE00000E400E018ED00E002480068C0F30220C1
:101FF000704700000CED00E0FEF798FCFFF7D0FD05
:10200000FFF7E8FBFFF776FCFFF7E6FC03E0024989
:102010000868FFF7ABFDFAE70000002002030405A3
:10202000060708090A0B0C0D0E0F10100102000024
:102030000000000000000102030406070809000078
:1020400000000102030400006820000800000020D6
:10205000180000006C010008802000081800002013
:10206000F0060000880100080000000000000000E9
:1020700000000000100000000100000000127A00C3
:0400000508000131BD
:00000001FF
