:020000040800F2
:10000000B8070020E5010008952D0008372A0008F0
:10001000912D000813130008192F0008000000009C
:100020000000000000000000000000009B2D000800
:100030001713000800000000992D00089D2D0008EE
:10004000FF010008FF010008FF010008FF01000890
:10005000FF010008FF01000819130008FF01000854
:1000600023130008FF010008FF010008FF0100083A
:10007000FF010008FF010008FF010008FF01000860
:10008000FF010008FF010008FF010008FF01000850
:10009000FF010008FF010008FF010008FF01000840
:1000A000FF010008FF010008FF010008FF01000830
:1000B000FF010008FF010008FF010008FF01000820
:1000C000FF010008FF010008FF010008FF01000810
:1000D000FF010008FF010008FF010008FF01000800
:1000E000FF010008FF010008FF010008FF010008F0
:1000F000FF010008FF010008FF010008FF010008E0
:10010000FF010008FF010008FF010008FF010008CF
:10011000FF010008FF010008A92D0008FF010008E9
:10012000FF010008FF010008FF010008FF010008AF
:1001300000F002F800F047F80AA090E8000C8244B2
:100140008344AAF10107DA4501D100F03CF8AFF28F
:10015000090EBAE80F0013F0010F18BFFB1A43F0A5
:100160000103184788420000A8420000103A24BF4B
:1001700078C878C1FAD8520724BF30C830C144BF0C
:1001800004680C607047000000230024002500264E
:10019000103A28BF78C1FBD8520728BF30C148BFEA
:1001A0000B607047662904F0C080002070471FB5BF
:1001B00000F072FB04000020002103F079FBE060F6
:1001C0001FBD10B510BD00F067FC1146FFF7EFFF33
:1001D00003F0E4FA00F085FC03B4FFF7F2FF03BC80
:1001E00000F0C8FC0948804709480047FEE7FEE7E1
:1001F000FEE7FEE7FEE7FEE7FEE7FEE7FEE7FEE7D7
:1002000004480549054A064B70470000A52D000823
:1002100031010008B8010020B8070020B803002011
:10022000B80300200FB41CB5074B06AA7B446946EF
:100230000090059800F017FB0020694600F026FBAF
:100240001CBC5DF814FB00005D0600002DE9F047C2
:100250004FF0000A89460446C0F820A02046E16815
:100260008847002876D0252806D0D4E90121904778
:10027000206A401C2062F1E7E1682046002688479A
:10028000C4F81CA005460027C4F818A02A2D09D0E0
:10029000284603F07BFA38B304EB8708303DC8F8F2
:1002A000185019E059F8041B204604EB87029161AD
:1002B000E1688847012F054618D1E069002820DA57
:1002C00026F020061DE0D8F8180000EB800005EBB2
:1002D00040003038C8F818002046E16888470546D5
:1002E00003F054FA0028EED1012F0AD02E2D08D1A8
:1002F0002046E16888477F1C0546022F46F020060D
:10030000C4DBA069002803DA404246F00106A06180
:10031000F00701D026F010066C2D0AD0682D08D009
:100320004C2D39D06A2D35D0742D35D07A2D33D05F
:1003300016E0E1682F4620468847B84205460AD1B4
:100340006C2F27D04FF48060E16806432046884731
:10035000054605E027E06C2F1AD04FF48070064365
:100360000DB3A5F14100192802D8203546F40066E6
:100370004A462946204626604E46FFF713FF80B1C5
:1003800001280BD0F61D26F0070000F1080965E7EB
:100390004020E4E78020D7E70020D5E706F10409F4
:1003A0005CE7284661E7206ABDE8F08710B5431C8A
:1003B00002E010F8011B71B18107FAD14FF0013250
:1003C00002C88C1A8C4314EAC211F9D0C01A0A066A
:1003D00003D0C01E10BDC01A10BD0A0401D0801E7B
:1003E00010BD0902FCD0401E10BD4FF0000200B548
:1003F000134694469646203922BFA0E80C50A0E848
:100400000C50B1F12001BFF4F7AF090728BFA0E8F5
:100410000C5048BF0CC05DF804EB890028BF40F8C1
:10042000042B08BF704748BF20F8022B11F0804F03
:1004300018BF00F8012B704770477047704770472E
:100440002DE9FF4F0C461E464FF0FF378BB0D2E927
:100450000001DDF860800A908A46C1F30A5505B9AB
:100460003D46002108464FF00000BAF1000F00F4AD
:10047000400005DA00EB80004FF4400101EA500033
:100480004FEA9059B9F1010F00DDB9460A9850EAD8
:100490004A000ED044F61050A5F2FF3545432F1404
:1004A000B8F1000F1ED07542291E1EDDC9F10002F1
:1004B0001CE0B8F1010F4FF0000001D0302103E043
:1004C000F24305E02154401CB042FBDB30460022E1
:1004D000002121540B99C1F80880C1E900200FB018
:1004E000BDE8F08FBD1B6D1CDEE74A4600DA6942AD
:1004F00006A800F05BFA06AB93E8070003AB83E8BD
:10050000070050460A9900F03CFB8DE80700A0F573
:1005100000501F3800900398002D0ADD42F21F01A1
:100520004A460844002303A90390684600F0A5FD4D
:1005300009E0A0F500504A461F38002303A90390A4
:10054000684600F0AFFD8DE807000004000C03D002
:100550004FF0FF30410800E01046B8F1000F03D023
:100560000022009215461EE0751E05D400F098F991
:10057000303262556D1EF9D5B3460122084302D0D0
:1005800000227F1C04E02078302801D100227F1E49
:10059000002A099784D01DE0112D07DA00F080F9B8
:1005A000303262556D1C50EA0102F5D1084302D089
:1005B0000098C8B10EE00021681E05E0235C625C73
:1005C00063542254401E491C8142F7DBAB46A81BF2
:1005D000401E0990002004F80B000B98099AC0F8FF
:1005E0000880C0E9002B7AE711264FF0000857E792
:1005F0002DE9F04F88460446D21D22F0070191B044
:10060000D1E90001CDE90A0103F0ACF802460B98EC
:10061000C00F01D02D2007E02068810701D52B20D5
:1006200002E0202101EAC000032A099001D0072A34
:1006300005DB03464146204600F078F90BE12078BF
:10064000800601D5E06900E00620B8F1650F81461B
:1006500006D0B8F1660F18D0B8F1670F70D131E04D
:100660000020B9F1110F009001DB112301E009F125
:1006700001030AAA01A90CA8FFF7E2FEDDE90C704C
:10068000002609F10105834647E001204B46009012
:100690004FF000470AAA01A90CA8FFF7D1FEDDE937
:1006A0000DB00C995D46002610B909F101000D1836
:1006B000B9EB050003D4C0F1FF3609F10105A5EB44
:1006C00009002BE0B9F1010F01DA4FF00109002018
:1006D000B9F1110F0090484601DD112300E00346F7
:1006E0000AAA01A90CA8FFF7ABFEDDE90C704D4684
:1006F00000268346207800070AD4AB4500DA5D4621
:1007000001A8012D04DD411911F8011C302907D081
:100710004F4502DA17F1040F04DA012082460FE098
:100720006D1EEEE7002F02DCED1B3E4403E0781C5B
:10073000A84200DD7D1CB81B00F1010A4FF0004704
:100740002078000703D4AA4501DB4FF0FF3A0021CF
:10075000B7F1004F0DF143088DF8431024D002206B
:100760002B23002F01DA7F422D230A21021EA0F144
:10077000010000DC5FB197FBF1FC97FBF1F201FB9C
:100780001C7C17460CF1300C08F801CDEEE7A8F1FF
:10079000010003702188090501D5452100E065218C
:1007A000A0F1010800F8011C09980FA9A1EB0807A6
:1007B000FF1D00B10120411901EBEA70A169384425
:1007C000081A401EA0612078C00602D42046AFF36C
:1007D0000080099828B1D4E901219047206A401C83
:1007E00020622078C00622D52046AFF300801EE0AC
:1007F000002E04DBB34502DD01A8805D00E030205F
:10080000D4E901219047206A401C2062761CAAF19D
:1008100001005FEA000A0AD100F03EF8C0680168F2
:10082000405CD4E901219047206A401C2062281EC8
:10083000A5F10105DCDC07E0D4E9012118F8010B82
:100840009047206A401C2062381EA7F10107F3DCA4
:100850002046AFF30080032011B041E601694A1C35
:1008600002610878704700B58FB0CDE901310021F1
:10087000059105497944CDE9031011466846FFF713
:10088000E5FC0FB000BD0000E5FFFFFF0A6802F8BD
:10089000010B0A6070470000004870477801002093
:1008A00030B5B0F10A024FEA900E71F100034EEA42
:1008B000817EB0EB0E0061EB91014FEA101E4EEA13
:1008C000017E10EB0E0041EB11114FEA102E4EEAA3
:1008D000016E10EB0E0041EB11214FEA104E4EEA73
:1008E000014E10EB0E0041EB1141401841F10001A7
:1008F0004FEAD00040EA41704FEAD10110EB800589
:100900004FEA810444EA907444EB01046D1944EB0E
:100910000404521BA3414FF0000348BF0A3200D524
:1009200030BD401C41F1000130BD00002DE9F04117
:100930001F46044603260168072A01F4006004DB11
:1009400008B116A505E016A503E008B115A500E05D
:1009500015A521F010002060A069C01EA0610FB194
:10096000401EA0612046AFF300804FB1D4E90121C1
:1009700038469047206A401C2062C01C206206E076
:10098000206AFAE7D4E9012115F8010B9047761E99
:10099000F8D22046AFF30080BDE8F0814E414E0012
:1009A0006E616E00494E4600696E66002DE9F047A3
:1009B000814616468AB0354878440DC88DE80D004A
:1009C00032487844801C03AC0DC884E80D0041F621
:1009D0009B300844372190FBF1F290FBF1F5A5F133
:1009E000800501FB12041B3C02D56442012000E09B
:1009F0000020DFF898A080460027FA44AAF1BE0A3A
:100A00000EE0E0070AD03246684607EB47010123B3
:100A10000AEB810100F046FB8DE8070064107F1CA3
:100A2000002CEED1194F7F44AE3F19E0E80715D0F6
:100A300007EB04100DF1180A90E80E008AE80E008A
:100A4000C068F04201D1981908903246012306A9E6
:100A500003A800F027FB03AB83E807006D10641CBC
:100A6000002DE3D14FF0010332466946B8F1000F83
:100A700003A802D000F001FB01E000F013FBC9E97C
:100A80000001C9F808200AB0BDE8F087183A000054
:100A900000487047580100207546FFF7F9FFAE4641
:100AA00005006946534620F00700854618B020B57A
:100AB000FFF7A6FBBDE820404FF000064FF000070F
:100AC0004FF000084FF0000B21F00701AC46ACE8F6
:100AD000C009ACE8C009ACE8C009ACE8C0098D4663
:100AE000704710B50446AFF300802046BDE81040C3
:100AF000FFF772BB4FF0013C50F8042B51F8043B58
:100B00009A4221D1A2EB0C03934313EACC1317D1E1
:100B100050F8042B51F8043B9A4215D1A2EB0C0378
:100B2000934313EACC130BD150F8042B51F8043B38
:100B30009A4209D1A2EB0C03934313EACC13DBD006
:100B40004FF00000704700BFD01A01BAB1FA81F12E
:100B500001F0180122FA01F0CB40C1F12001DBB213
:100B6000C0B2C01A2CFA01F3D11A914311EAC31191
:100B7000E6D1704701491820ABBEFEE7260002000F
:100B800070475FEA400C08BF91F0000F4FEA8C23DA
:100B90004FEAC12243EA51514FEA1C5018BF00F5F9
:100BA000F0404FEA300018BF41F000415FEA6C5C52
:100BB00000F02980BCF1FF3F08BF40F08040704743
:100BC000130C06BF12044FF0100C4FF0000C130E64
:100BD00004BF12020CF1080C130F04BF12010CF138
:100BE000040C930F04BF92000CF1020CD30F04BF4E
:100BF00052000CF1010C11464FF00002A0F11F0051
:100C0000A0EB0C00704711F0004F08BF704731F0A7
:100C100000413FF4D5AF0B0C06BF09044FF0100C98
:100C20004FF0000C0B0E04BF09020CF1080C0B0F67
:100C300004BF09010CF1040C8B0F04BF89000CF1F7
:100C4000020CCB0F04BF49000CF1010CCCF12003C6
:100C5000A0EB0C0022FA03F302FA0CF241EA0301C2
:100C600000F10100704720F07F4C80EA030023F080
:100C70007F47ACEB070303F57C5300F0004003F122
:100C8000FF032DE980494FEA154B09B44FEA14439D
:100C900025EA0B4E24EA03480FF2042606EB13273D
:100CA00049083E785FEA320203FB0667C7F5000792
:100CB00007FB06F64FEA54374FEAD64606F102061E
:100CC00007FB066CCCF1005C4FEA1C472CEA074C92
:100CD00007FB06F40CFB06F504EB15464FEA9616E7
:100CE00034BF00204FF000404FEAD13706FB07FC2D
:100CF0004FEA1C4C0CFB0BF7D21B03FB0CF761EB10
:100D000007010CFB0EF7B0EB074072EB17420CFB30
:100D100008F734BFA2EB0742B2EB074261EB174181
:100D20004FEA0C444FEA910706FB07FC4FEA1C4CC4
:100D30000CFB0BF7B0EBC74072EB573203FB0CF721
:100D400034BFA2EBC742B2EBC74261EB57310CFB99
:100D50000EF7B0EBC70072EB57720CFB08F734BF0D
:100D6000A2EBC702B2EBC70261EB5771039F4FEAD8
:100D7000816141EA921104EBCC044FEAD1374FEA8A
:100D8000826206FB07FC42EA90124FEA80604FEA5B
:100D90001C4C0CFB0BF7D21B03FB0CF761EB0701A0
:100DA0000CFB0EF7B0EB074072EB17420CFB08F799
:100DB00034BFA2EB0742B2EB074261EB17414FEAA7
:100DC0008C554FEA910704EB9C2406FB07FC4FEA85
:100DD0001C4C0CFB0BF7B0EBC74072EB573203FB1C
:100DE0000CF734BFA2EBC742B2EBC74261EB5731FD
:100DF0000CFB0EF7B0EBC70072EB57720CFB08F759
:100E000034BFA2EBC702B2EBC70261EB577115EB1F
:100E10004C254FEA816141EA92114FEA82624FEA22
:100E2000D13742EA901206FB07FC44F100044FEA76
:100E300080604FEA1C4C0CFB0BF7D21B03FB0CF73A
:100E400061EB07010CFB0EF7B0EB074072EB1742AA
:100E50000CFB08F734BFA2EB0742B2EB074261EB91
:100E6000174115EB1C154FEA813141EA92414FEAD7
:100E7000823242EA90424FEA80304FEA0C7644F1E7
:100E8000000448EA03434EEA0B484FF0000EB2EB71
:100E9000080C71EB030724BF624639464EEB0E0E79
:100EA0004FF0000B0018524149414BEB0B0BB2EBDA
:100EB000080C71EB03077BF1000B24BF6246394637
:100EC0004EEB0E0E4FF0000B0018524149414BEB18
:100ED0000B0BB2EB080C71EB03077BF1000B24BF8B
:100EE000624639464EEB0E0E51EA020718BF46F035
:100EF000010616EB0E7655F1000254F1000103D500
:100F0000BDE88901BDE80088BDE88901BDE8004869
:100F1000B619524141EB0101A3F1010370478080F2
:100F20007F7E7D7C7B7A7978777676757473727143
:100F300071706F6E6E6D6C6C6B6A6A6968686766FB
:100F400066656464636362616160605F5F5E5E5D8D
:100F50005D5C5C5B5B5A5A59595858575756565501
:100F600055555454535352525251515050504F4F63
:100F70004F4E4E4D4D4D4C4C4C4B4B4B4A4A4A49B3
:100F800049494848484747474746464645454544F6
:100F90004444444343434342424242414141002B83
:100FA0009C4630D477002BD01CB54FEA370703B4EA
:100FB0004FF010004FF01001BAF1000F06D0BCF155
:100FC000000FDCBF40F0080040F008014FF00000C7
:100FD0000FBCBDE810400BF1010BBBF1010F08BFC6
:100FE0005FEA170722BF12F1010211F101014FF070
:100FF000004143F1000300F0004043EA0000704765
:10100000F9D35708D0E746EA064613F1400F4FEAF6
:1010100016461FDD13F1200FDFBF16430A460021DD
:1010200020335B42BED0C3F1200746EA064602FAEF
:1010300007F74FEA164646EA0706C3F1200722FAE9
:1010400003F201FA07F721FA03F14FF0000342EA35
:101050000702A7E746EA020646EA06464FEA1646B0
:1010600046EA0106BCBF46EA0646360C4FF00003CE
:101070004FF000024FF0000194E72DE9804C9A46B2
:10108000934670B491E8380007C831EA400C48BF75
:1010900034EA430C03D5FFF7E6FDFFF780FFF0BC11
:1010A000BDE8008C2DE9804C9A46934670B491E8D7
:1010B000380007C810F0804F08BF13F0804F03D1ED
:1010C00000F005F8FFF76BFFF0BCBDE8008C20F0E6
:1010D0007F4780EA030023F07F4C07EB0C03A3F566
:1010E0007C5300F00040A3F1FE0392F0000F00F0EB
:1010F000B38095F0000F00F077802DE901494FEAA9
:1011000011404FEA144621EA004800FB06FC24EA9D
:10111000064708FB06F607FB08F800FB07F718EB85
:1011200006484CEB164C4FEA124B18EB07484FEAB7
:1011300015464CEB174022EA0B4E0BFB06FC25EA4A
:1011400006470EFB06F607FB0EFE0BFB07F71EEB32
:10115000064E4CEB164C4FF000061EEB074E4CEBC8
:10116000174B18EB0B0840F1000018EB0E0B58EB77
:10117000000840F100008F1A4FF000013CBFC94346
:10118000661B14BFB5EB040C00213CBFC943F61B22
:101190004FEA17444EEA8E0E27EA04454FEA1C47F1
:1011A00004FB07622CEA074C05FB07F70CFB05F66E
:1011B00004FB0CFC16EB074642EB174216EB0C4601
:1011C00042EB1C421BEB060658EB0202414146EA89
:1011D0009E0601D5BDE80189B619524141EB0101D6
:1011E000A3F10103BDE801894FEA14454FEA114715
:1011F00024EA054621EA074C05FB07F406FB07F73E
:101200000CFB06F105FB0CFC11EB074144EB17440A
:101210004FEA124711EB0C4144EB1C4422EA074C05
:1012200005FB07F206FB07F70CFB06F605FB0CFCBB
:1012300016EB074642EB174216EB0C4642EB1C45F9
:101240006A1854F1000148BF7047B619524141EB8A
:101250000101A3F10103704795F0000F37D04FEA69
:1012600011424FEA144721EA024624EA074C02FBE6
:1012700007F106FB07F70CFB06F402FB0CFC14EB72
:10128000074441EB17414FEA154714EB0C4441EB7F
:101290001C4125EA074C02FB07F506FB07F70CFB90
:1012A00006F602FB0CFC16EB074645EB174516EB62
:1012B0000C4645EB1C42121951F1000148BF704722
:1012C000B619524141EB0101A3F1010370474FEA06
:1012D00014454FEA114724EA054621EA074C05FB6D
:1012E00007F106FB07F70CFB06F24FF0000605FBC3
:1012F0000CFC12EB074241EB174112EB0C4251EB95
:101300001C4148BF7047921841EB0101A3F1010352
:10131000704700BFFEE7704710B5012000F08EF85F
:1013200010BD10B5042000F089F810BD72B600BFE2
:10133000FEE7000070B5044600F03CFA064625467C
:10134000681C10B104480078054400BF00F032FA70
:10135000801BA842FAD370BD1800002070B5044667
:10136000012C31D10121334800F016FA0546022143
:10137000304800F011FA0646012D11D146B92E4928
:1013800008684FF07E5102F0B3FC2B49086007E07B
:10139000294908684FF07E5102F052FF2649086043
:1013A0008DB946B9244908684FF07E5102F048FFD4
:1013B0002149086007E0204908684FF07E5102F09B
:1013C00097FC1D49086000BF042C31D10421194845
:1013D00000F0E2F905460821164800F0DDF906465E
:1013E000012D11D146B9144948684FF07E5102F0E1
:1013F0007FFC1149486007E00F4948684FF07E5173
:1014000002F01EFF0C4948608DB946B90A49486888
:101410004FF07E5102F014FF0749486007E006498B
:1014200048684FF07E5102F063FC0349486000BFFA
:1014300070BD0000001001400400002010B50446FB
:1014400004480068204020B1024804602046FFF7AD
:1014500085FF10BD140401402DE9F8470246002322
:101460009C467BE14FF0010808FA03F4D1F80080B4
:1014700008EA0400A0427DD1DFF8F4A2D1F804808C
:10148000A8EB0A09D0453AD014DCB8F1030F50D0CC
:1014900009DCB8F1000F31D0B8F1010F1CD0B8F160
:1014A000020F49D120E0B8F1110F18D0B8F1120F96
:1014B00042D11EE0B9F5881F25D006DCB9F5803F82
:1014C00020D0B9F5801F37D11AE0B9F5001F18D028
:1014D000B9F5041F30D117E0D1F80CC02DE0D1F8D8
:1014E0000C8008F1040C28E0D1F80C8008F1080CFD
:1014F00023E0D1F80C8008F10C0C1EE000BF00BF07
:1015000000BF00BF00BF00BFD1F80880B8F1000FD6
:1015100002D14FF0040C0BE0D1F80880B8F1010FB4
:1015200003D14FF0080C146102E04FF0080C546135
:1015300003E04FF0000C00E000BF00BFFF2801D81F
:10154000904601E002F104084646FF2802D84FEA1F
:10155000830803E0A3F108084FEA88084746D6F855
:1015600000804FF00F0909FA07F928EA09080CFA78
:1015700007F900E07AE048EA0908C6F80080D1F8E7
:10158000048008F08058B8F1805F6FD100BFDFF8A9
:10159000E481D8F8188048F00108DFF8D891C9F83C
:1015A0001880C846D8F8188008F00108CDF80080E7
:1015B00000BF00BF4FEAB9384FEA930958F82950E5
:1015C0004FEA83784FEA18794FF00F0808FA09F8C4
:1015D00025EA0805DFF8A081424502D14FF0000856
:1015E00024E0DFF89881424502D14FF001081DE068
:1015F000DFF88C81424502D14FF0020816E0DFF897
:101600008481424502D14FF003080FE0DFF8788172
:10161000424502D14FF0040808E0DFF870814245EE
:1016200002D14FF0050801E04FF006084FEA837938
:101630004FEA197908FA09F848EA0505DFF85081F8
:101640004FEA930948F82950D1F8048008F480182B
:10165000B8F5801F0BD1DFF83C81D8F8008048EA4C
:101660000008DFF83091C9F800800AE075E0DFF883
:101670002481D8F8008028EA0008DFF81891C9F81A
:101680000080D1F8048008F40018B8F5001F0ED1CE
:10169000DFF8008108F10408D8F8008048EA000863
:1016A000DFF8F09009F10409C9F800800DE0DFF8D7
:1016B000E48008F10408D8F8008028EA0008DFF880
:1016C000D49009F10409C9F80080D1F8048008F425
:1016D0000038B8F5003F0ED1DFF8B880A8F1040853
:1016E000D8F8008048EA0008DFF8A890A9F10409BA
:1016F000C9F800800DE0DFF89C80A8F10408D8F854
:10170000008028EA0008DFF88C90A9F10409C9F8E4
:101710000080D1F8048008F48038B8F5803F0ED1FD
:10172000DFF87080A8F10808D8F8008048EA0008BF
:10173000DFF86090A9F10809C9F800800DE0DFF832
:101740005480A8F10808D8F8008028EA0008DFF8DB
:101750004490A9F10809C9F800805B1CD1F8008009
:1017600028FA03F8B8F1000F7FF47CAEBDE8F887E3
:10177000000011100010024000080140000C014060
:10178000001001400014014000180140001C0140FD
:101790000800014008040140024693680B400BB169
:1017A000012000E0002070470AB1016101E00B0454
:1017B0000361704701480068704700001000002076
:1017C00003480068034909780844014908607047E4
:1017D000100000201800002010B50848006840F0F4
:1017E000100006490860032000F0A8F80F2000F060
:1017F00007F800F02BF8002010BD00000020024088
:1018000070B504460E4800784FF47A71B1FBF0F0E1
:101810000C490968B1FBF0F5284600F0F9FB08B166
:10182000012070BD102C07D200222146501E00F06E
:1018300047F80548046001E00120F2E70020F0E7E6
:10184000180000201C0000201400002008B500BF74
:101850001148806940F001000F498861084680699D
:1018600000F00100009000BF00BF00BF0846C06943
:1018700040F08050C8610846C06900F08050009078
:1018800000BF00BF00BF0549486820F0E06040F09D
:101890000070486000BF08BD001002400000014019
:1018A00001460846002809DB00F01F0301229A4088
:1018B00043099B0003F1E023C3F8002100BF7047F8
:1018C0002DE9F05F80460D461646002701F042FFE5
:1018D000074639462A46334601F00700C0F1070A99
:1018E000BAF1040F02D94FF0040A01E0C0F1070A6F
:1018F000D14600F1040ABAF1070F02D24FF0000AF4
:1019000001E0A0F1030AD4464FF0010A0AFA09FAED
:10191000AAF1010A0AEA020A0AFA0CFA4FF0010BCC
:101920000BFA0CFBABF1010B0BEA030B4AEA0B04BD
:101930002146404601F0FAFEBDE8F09F00BF00F0EE
:101940000702064B19684FF6FF031940044B0B437F
:1019500043EA0221014B196000BF70470CED00E023
:101960000000FA0570B504460D460CB9012070BDA3
:101970005A48006800F00700A8420ED25748006895
:1019800020F007002843554908600846006800F029
:101990000700A84201D00120E9E7207800F002000A
:1019A00002281DD1207800F00400042805D14C48FD
:1019B000406840F4E0604A494860207800F0080040
:1019C000082805D14648406840F4605044494860C2
:1019D0004348406820F0F000A1680843404948604F
:1019E000207800F0010078B36068012806D13C48F7
:1019F000006800F4003090B90120B8E76068022860
:101A000006D13748006800F0007040B90120AEE709
:101A10003348006800F0020008B90120A7E7304809
:101A2000406820F00300616808432D494860FFF7D3
:101A3000C1FE064609E0FFF7BDFE801B41F288317A
:101A4000884202D9032092E707E02548406800F069
:101A50000C006168B0EB810FEDD12048006800F008
:101A60000700A8420ED91D48006820F0070028434F
:101A70001A4908600846006800F00700A84201D033
:101A8000012074E7207800F00400042807D11448EE
:101A9000406820F4E060E16808431149486020781C
:101AA00000F00800082808D10D48406820F4605074
:101AB000216940EAC1000A49486000F03FF808493E
:101AC0004968C1F30311074A515CC84006490860E0
:101AD00006480068FFF794FE002048E70020024017
:101AE00000100240404300081C00002014000020A9
:101AF00001480068704700001C00002000B5FFF797
:101B0000F7FF04494968C1F30221034A515CC84008
:101B100000BD0000001002405043000800B5FFF770
:101B2000E7FF04494968C1F3C221034A515CC84038
:101B300000BD0000001002405043000870B50021B5
:101B40000022002400230020134D696801F00C05D9
:101B5000EDB1042D02D0082D1AD101E00F4819E093
:101B60000F4DC1F38346AB5D01F4803555B10A4D8D
:101B70006D68C5F340450B4E725D084D5D43B5FB86
:101B8000F2F402E0084D03FB05F4204602E000BF3A
:101B9000024800BF00BF70BD0010024000127A0072
:101BA0002E4300083E43000800093D00F8B50446F6
:101BB0000CB90120F8BD207800F00100002878D091
:101BC000F848406800F00C0004280CD0F548406844
:101BD00000F00C00082811D1F248406800F4803071
:101BE000B0F5803F0AD1EF48006800F400300028CB
:101BF0005FD0606800285CD10120DBE700BF60682F
:101C0000B0F5803F06D1E748006840F48030E549F0
:101C1000086028E0606858B9E248006820F4803025
:101C2000E04908600846006820F4802008601AE057
:101C30006068B0F5A02F0BD1DA48006840F480202E
:101C4000D84908600846006840F4803008600AE01F
:101C5000D448006820F48030D24908600846006803
:101C600020F48020086000BF606888B1FFF7A2FD03
:101C7000054606E0FFF79EFD401B642801D90320BE
:101C800098E7C848006800F400300028F2D010E05F
:101C9000FFF790FD054606E0FFF78CFD401B64282A
:101CA00001D9032086E7BF48006800F4003000280F
:101CB000F2D1207800F00200022857D1B9484068DC
:101CC00000F00C0050B1B748406800F00C00082844
:101CD00018D1B448406800F4803098B9B148006821
:101CE00000F0020020B12069012801D0012061E745
:101CF000AC48006820F0F800616940EAC100A949D9
:101D0000086033E02069E8B10120A7490860FFF7C7
:101D100051FD054606E0FFF74DFD401B022801D9A5
:101D2000032047E79F48006800F002000028F2D037
:101D30009C48006820F0F800616940EAC1009949B8
:101D4000086013E0002098490860FFF733FD05465E
:101D500006E0FFF72FFD401B022801D9032029E7E9
:101D60009048006800F002000028F2D1207800F0CE
:101D7000080008282DD1A069B8B101208B4908605E
:101D8000FFF718FD054606E0FFF714FD401B02288B
:101D900001D903200EE78348406A00F002000028C2
:101DA000F2D0012001F0E6FA13E000207F4908603C
:101DB000FFF700FD054606E0FFF7FCFC401B02288C
:101DC00001D90320F6E67748406A00F002000028B7
:101DD000F2D1207800F00400042873D10027714864
:101DE000C06900F0805070B900BF6E48C06940F013
:101DF00080506C49C8610846C06900F0805000906E
:101E000000BF00BF01276A48006800F48070B0B9C5
:101E10006748006840F4807065490860FFF7CAFCB5
:101E2000054606E0FFF7C6FC401B642801D90320E5
:101E3000C0E65F48006800F480700028F2D000BF60
:101E4000E068012806D15748006A40F00100554972
:101E5000086227E0E06858B95248006A20F00100A3
:101E6000504908620846006A20F00400086219E040
:101E7000E06805280BD14B48006A40F0040049494E
:101E800008620846006A40F0010008620AE045481E
:101E9000006A20F00100434908620846006A20F009
:101EA0000400086200BFE068A0B1FFF783FC0546AC
:101EB00009E0FFF77FFC401B41F28831884202D9DC
:101EC000032077E622E03748006A00F0020000288D
:101ED000EFD012E0FFF76EFC054608E0FFF76AFC62
:101EE000401B41F28831884201D9032062E62D4827
:101EF000006A00F002000028F0D1012F05D1294826
:101F0000C06920F080502749C86100BFE069C8B3AC
:101F10002448406800F00C00082860D0E0690228DE
:101F200048D1002020490866FFF744FC054606E03A
:101F3000FFF740FC401B022801D903203AE619486C
:101F4000006800F000700028F2D1206AB0F5803FF0
:101F500007D11448406820F40030A16808431149B3
:101F60004860D4E9080108430E49496821F4741116
:101F700008430C49486001200B490866FFF71AFC2A
:101F8000054607E03DE0FFF715FC401B022801D99C
:101F900003200FE60348006800F000700028F2D02C
:101FA0002FE0000000100240000042428004424244
:101FB00000700040002014490866FFF7FBFB05464F
:101FC00006E0FFF7F7FB401B022801D90320F1E5EB
:101FD0000E48006800F000700028F2D111E0E069BE
:101FE000012800D1E6E50948466806F48031206AF8
:101FF000814204D106F47011606A814201D001204F
:10200000D8E50020D6E50000000042420010024062
:1020100070B504462546681EB0F1807F01D30120CB
:102020000FE0681E4FF0E02148610F214FF0FF30B4
:1020300001F07CFB00204FF0E0218861072008615F
:10204000002070BD7047704710B50346002200BFE6
:1020500093F83C00012801D1022010BD012083F833
:102060003C0000BF22F0FF00CC6840EA040222F4EA
:1020700040708C6840EA040222F480604C6840EAB8
:10208000040222F400600C6840EA040222F480504A
:102090000C6940EA040222F400504C6940EA040250
:1020A00022F48040CC6940EA04021868426400BF10
:1020B000002083F83C0000BF00BFCEE730B50246E9
:1020C0000B4600BF92F83C00012801D1022030BD30
:1020D000012082F83C0000BF022082F83D00106819
:1020E00044681068816824F070041868044310681C
:1020F0004460144D1068A84213D0134D1068A842D4
:102100000FD01068B0F1804F0BD0104D1068A8426E
:1021100007D00F4D1068A84203D00E4D1068A8429A
:1021200005D121F0800158680143106881600120C9
:1021300082F83D0000BF002082F83C0000BF00BFD5
:10214000C5E70000002C01400034014000040040BD
:1021500000080040000C004010B504460CB90120F6
:1021600010BD94F83D0028B9002084F83C002046BA
:1021700000F026F8022084F83D00211D206800F0C0
:102180001BFE012084F8460000BF84F83E000121B8
:102190003F200155402001554120015500BF00BF9F
:1021A000012084F842004320015544200155452078
:1021B000015500BF012084F83D000020D0E7000059
:1021C00038B504461F49206888420DD100BF1E481B
:1021D000C06940F002001C49C8610846C06900F0AF
:1021E0000200009000BF2CE018492068884216D1F8
:1021F00000BF1548C06940F010001349C861084687
:10220000C06900F01000009000BF00BF0022032151
:102210003620FFF755FB3620FFF742FB11E00C4953
:10222000206888420DD100BF0748806940F4005003
:10223000054988610846806900F40050009000BF9D
:1022400000BF38BD000400400010024000100040F4
:1022500000340140014691F83D00012801D00120E1
:102260007047022081F83D000868C06840F0010016
:102270000B68D860164B0868984213D0154B086855
:1022800098420FD00868B0F1804F0BD0124B08680D
:10229000984207D0114B0868984203D0104B086849
:1022A00098420CD10868806800F00702062A0CD01A
:1022B0000868006840F001000B68186005E00868D5
:1022C000006840F001000B6818600020C8E70000BB
:1022D000002C014000340140000400400008004090
:1022E000000C00402DE9F04104460D46002700BFD8
:1022F00094F83C00012802D10220BDE8F0810120C1
:1023000084F83C0000BF022084F83D002068866805
:1023100026F0770626F47F462068866028685028D5
:1023200033D00CDC202850D004DC00284BD01028FF
:1023300051D149E0302849D040284CD139E06028BB
:102340002DD0702807D0B0F5805F03D0B0F5005FC6
:1023500041D10DE041E0D5E902136A68206800F040
:1023600092FD2068866846F077062068866034E033
:10237000D5E902136A68206800F085FD206880684E
:1023800040F480402168886027E0EA686968206836
:1023900001F0ABF85021206801F09EF81DE0EA68DA
:1023A0006968206801F0B4F86021206801F094F8B1
:1023B00013E0EA686968206801F097F84021206816
:1023C00001F08AF809E000BF00BF00BF296820685B
:1023D00001F082F801E0012700BF00BF012084F86E
:1023E0003D0000BF002084F83C0000BF384684E771
:1023F000704770B504462068C5682068066906F015
:102400000200022819D105F00200022815D1401F50
:1024100021680861012020772068806900F00300AE
:1024200018B12046FFF7E4FF05E0204600F0E4F88D
:10243000204600F098F90020207706F004000428D8
:1024400019D105F00400042815D1C04321680861A2
:10245000022020772068806900F4407018B120467F
:10246000FFF7C6FF05E0204600F0C6F8204600F062
:102470007AF90020207706F00800082819D105F025
:102480000800082815D1C04321680861042020777E
:102490002068C06900F0030018B12046FFF7A8FFCC
:1024A00005E0204600F0A8F8204600F05CF9002086
:1024B000207706F01000102819D105F01000102820
:1024C00015D1C04321680861082020772068C069C1
:1024D00000F4407018B12046FFF78AFF05E020465F
:1024E00000F08AF8204600F03EF90020207706F040
:1024F000010048B105F0010030B16FF00100216822
:102500000861204600F0AAF906F08000802809D171
:1025100005F08000802805D1C0432168086120466D
:10252000FFF790FD06F04000402809D105F040007B
:10253000402805D1C04321680861204600F09CF97D
:1025400006F02000202809D105F02000202805D120
:10255000C043216808612046FFF775FD70BD00008B
:1025600010B586B0044600200290039004900590B8
:102570001C492068884217D100BF1B48806940F081
:102580000400194988610846806900F00400019040
:1025900000BF00BF4020029002200390059002A9D6
:1025A0001248FEF759FF1AE011492068884216D1F7
:1025B00000BF0D48806940F010000B498861084653
:1025C000806900F01000019000BF00BFC0200290A1
:1025D00002200390059002A90648FEF73DFF06B0D1
:1025E00010BD00000004004000100240000801403F
:1025F000003401400010014070472DE9F0410446CD
:102600000D461646002700BF94F83C00012802D171
:102610000220BDE8F081012084F83C0000BF36B103
:10262000042E1BD0082E31D00C2E5ED145E0294659
:10263000206800F0B3FE2068806940F0080021683F
:1026400088612068806920F0040021688861206822
:102650008069296908432168886148E02946206823
:1026600000F01CFC2068806940F4006021688861EB
:102670002068806920F48060216888612068806912
:10268000296940EA01202168886130E029462068F4
:1026900000F0BCFE2068C06940F008002168C861F5
:1026A0002068C06920F004002168C8612068C06902
:1026B000296908432168C86119E02946206800F0AB
:1026C000E1FE2068C06940F400602168C8612068AC
:1026D000C06920F480602168C8612068C0692969E8
:1026E00040EA01202168C86101E0012700BF00BF66
:1026F00000BF002084F83C0000BF384689E710B5D1
:1027000004460CB9012010BD94F83D0028B9002002
:1027100084F83C00204600F025F8022084F83D00B3
:10272000211D206800F048FB012084F8460000BF0E
:1027300084F83E0001213F200155402001554120F1
:10274000015500BF00BF012084F84200432001551D
:10275000442001554520015500BF012084F83D006B
:102760000020D0E77047704770B504460D4615B994
:1027700094F83E000BE0042D02D13F20005D06E0FE
:10278000082D02D14020005D01E04120005D0128BC
:1027900001D0012070BD1DB9022084F83E000EE07A
:1027A000042D03D102213F20015508E0082D03D15B
:1027B00002214020015502E0022141200155012261
:1027C0002946206800F04EFB1F492068884203D04C
:1027D0001E492068884201D1012000E0002028B174
:1027E0002068406C40F40040216848641649206825
:1027F000884213D01549206888420FD02068B0F174
:10280000804F0BD012492068884207D011492068B8
:10281000884203D01049206888420CD12068806823
:1028200000F00706062E0CD02068006840F001007A
:102830002168086005E02068006840F00100216818
:1028400008600020A6E70000002C01400034014091
:102850000004004000080040000C00400449884289
:1028600004D104490968491C024A116070470000FC
:102870006800002000000020704710B504460CB925
:10288000012010BDA06900B100E000BF94F8410034
:1028900028B9002084F84000204600F029F82420C0
:1028A00084F841002068C06820F400502168C860A6
:1028B000204600F041FE2068006920F49040216825
:1028C00008612068406920F02A002168486120687A
:1028D000C06840F400502168C86000206064202077
:1028E00084F8410084F842000020606300BFC8E71C
:1028F00010B586B004460020029003900490059025
:102900001A49206888422ED100BF1948806940F4D6
:102910008040174988610846806900F48040019032
:1029200000BF00BF00BF0846806940F00400886116
:102930000846806900F00400019000BF00BF481500
:102940000290022003900320059002A90948FEF797
:1029500083FD4FF48060029000200390049002A950
:102960000448FEF779FD06B010BD000000380140B4
:1029700000100240000801402DE9F84F04460E46C1
:10298000174699464FF0000A94F84100202850D18C
:1029900006B117B90120BDE8F88F0020606421203E
:1029A00084F84100FEF706FF8246A784E784A0680A
:1029B000B0F5805F04D1206910B90025B04602E06F
:1029C00035464FF000081EE0534600228021204685
:1029D000CDF8009000F064FE20B1202084F8410082
:1029E0000320D8E745B9B8F80000C0F30800216813
:1029F000486008F1020803E02878216848606D1CEF
:102A0000E08C401EE084E08C0028DDD1534600229B
:102A100040212046CDF8009000F042FE20B1202059
:102A200084F841000320B6E7202084F8410000200C
:102A3000B1E70220AFE700BFFEE7000000B585B0B8
:102A40000020019002900390049000BF49488069E3
:102A500040F02000474988610846806900F0200066
:102A6000009000BF00BF00BF0846806940F0100022
:102A700088610846806900F01000009000BF00BF28
:102A800000BF0846806940F00400886108468069FC
:102A900000F00400009000BF00BF00BF084680693E
:102AA00040F0080088610846806900F00800009046
:102AB00000BF00BF00224FF440512F48FEF774FEC4
:102AC00000224FF440612D48FEF76EFE01225102B4
:102AD0002948FEF769FE052001902948029001204F
:102AE000039001A92548FEF7B7FC4FF485700190CB
:102AF000002002900120039001A92048FEF7ACFCC1
:102B00004FF44050019001200290002003900320D8
:102B1000049001A91848FEF79FFC4FF44060019013
:102B200001200290002003900320049001A9134883
:102B3000FEF792FC4FF400700190012002900020FB
:102B400003900220049001A90B48FEF785FC0022A7
:102B500001210620FEF7B4FE0620FEF7A1FE0022AA
:102B600001210820FEF7ACFE0820FEF799FE05B013
:102B700000BD000000100240000C014000100140A8
:102B80000000311000B58DB0002009900A900B9024
:102B90000C90079008901C216846FDF726FC204801
:102BA000204908604720486000211E48816044F6A3
:102BB0001F61C160002101618161FFF7CDFA08B199
:102BC000FEF7B4FB4FF48050099009A91548FFF7B0
:102BD00089FB08B1FEF7AAFB1248FFF790FD08B188
:102BE000FEF7A4FB00200790089007A90D48FFF707
:102BF00065FA08B1FEF79AFB602000900020019072
:102C000002900490002269460648FFF7F6FC08B1DE
:102C1000FEF78CFB0348FFF7A3FC0DB000BD0000DE
:102C200000040040200000201CB50020009001900E
:102C30000E480F4908604720486000210C48816019
:102C400040F2E731C16000218161FFF785FA08B1E8
:102C5000FEF76CFB00200090019069460448FFF7E6
:102C60002DFA08B1FEF762FB1CBD00000010004009
:102C70006800002000B595B00020119012901390CC
:102C800014900F9010901C2108A8FDF7AEFB202196
:102C90006846FDF7AAFB2E482E4908604720486089
:102CA00000212C4881606321C160002101614161E4
:102CB0008161FFF751FA08B1FEF738FB4FF48050FD
:102CC000119011A92348FFF70DFB08B1FEF72EFB69
:102CD0002048FFF714FD08B1FEF728FB00200F90F5
:102CE00010900FA91B48FFF7E9F908B1FEF71EFB8A
:102CF00060200890002009900A900B900C900D9095
:102D00000E90002208A91348FFF777FC08B1FEF7E0
:102D10000DFB042208A90F48FFF76FFC08B1FEF76E
:102D200005FB0020009001900290039004904FF466
:102D3000005005900020079069460648FFF784F987
:102D400008B1FEF7F3FA0348FFF70AFC15B000BD1F
:102D500000340140B000002010B50B480B4908605A
:102D60004FF4E1304860002108488160C160016192
:102D70000C21416100218161C161FFF77EFD08B135
:102D8000FEF7D4FA10BD000000380140F800002022
:102D900000BFFEE700BFFEE77047704710B5FEF7C3
:102DA0000FFD10BD7047000010B50248FFF721FB72
:102DB00010BD00006800002010B50268244B984246
:102DC0000ED0244B98420BD0B0F1804F08D0224B4C
:102DD000984205D0214B984202D0214B984203D112
:102DE00022F070024B681A43194B98420ED0194BCF
:102DF00098420BD0B0F1804F08D0174B984205D0C5
:102E0000164B984202D0164B984203D122F44072DE
:102E1000CB681A4322F080034C6943EA0402026043
:102E20008B68C3620B688362094B984202D0094BDE
:102E3000984201D10B69036301234361036903F0E5
:102E400001031BB1036923F00103036110BD0000FE
:102E5000002C014000340140000400400008004004
:102E6000000C004030B501F01F05012404FA05F301
:102E7000046A9C430462046A01F01F0502FA05F526
:102E80002C43046230BD30B50C46816821F47F418B
:102E900042EA032525432943816030BD30B5026AEB
:102EA000056A25F0100505624368846924F4E0444E
:102EB00024F440740D6844EA052422F020028D6851
:102EC00042EA0512124DA84200D103E0114DA8427A
:102ED00007D100BF22F08002CD6842EA051222F03D
:102EE00040020B4DA84202D00A4DA84209D123F45A
:102EF000806323F400634D6943EA85038D6943EAE7
:102F00008503436084614D688563026230BD0000C3
:102F1000002C01400034014000BFFEE710B504461C
:102F20004FF480710A48FEF737FC70B90F20FEF7A6
:102F300001FA00BF4FF480710548FEF72DFC002810
:102F4000F8D00F20FEF7F6F90124204610BD00004E
:102F5000001001402DE9F04F85B004460E4617469B
:102F60009846DDE90E9AC4F80080C4F80490C4F8CD
:102F700008A0E7601F49304600F028FF1E49029074
:102F800001F056F88346E16801F04FF905462946FD
:102F9000206900F0ADFE20612846616901F050F91A
:102FA0000490A068049901F043F8029021696068D8
:102FB00001F03EF801902946206801F039F80090B0
:102FC000019900F095FE8346029900F091FE03906E
:102FD00065610A49284600F0F7FF06D208492846ED
:102FE00001F0F2F801D200200390039805B0BDE88B
:102FF000F08F0000000036440000B4430000404061
:10300000000040C02DE9FC4105460C46002000F0C0
:103010005BF80F49284600F0D9FE07460D4901F03C
:1030200007F806460C480021CDE900100B4B32464C
:103030006120216800F014F807480021CDE9001054
:10304000064B32466220616800F00AF8BDE8FC8158
:1030500019344C430000B4430AD7233CCDCC4C3E3A
:103060002DE9FC5F05460E4617469846DDE90C9AA9
:1030700043463A4631461148CDE9009AFFF76AFFC8
:1030800083460F49584601F09FF801D20C4807E0EB
:103090000C49584600F098FF01D20A4800E0584613
:1030A0008346584600F054FF04B2022C00DA002494
:1030B0002146284600F0AEF8BDE8FC9F4001002004
:1030C0000000A0410000A0C12DE9F0470446002106
:1030D000204601F079F81DD8204600F0DDFD0746B6
:1030E00000221F4B00F02CFC054600F0F7FB814648
:1030F00049461C4800F09CFF06461B4900F0F8FDBD
:10310000054600F041FF1FFA80FA18480068C0F831
:1031100034A000BF0021204600F056FF1DD22046FB
:1031200000F0BAFD07460022114B00F009FC0546ED
:1031300000F0D4FB814649460A4800F079FF064674
:10314000094901F072F8054600F01EFF1FFA80FAE7
:1031500006480068C0F834A000BFBDE8F087000052
:103160000080564000007A440080BB4420000020CC
:10317000008056C02DE9FC4106460D4614463046F7
:10318000FFF7A2FF0F49284600F020FE80460E49B7
:1031900000F04EFF07460D480021CDE900100C4B12
:1031A0003A4661202168FFF75BFF08480021CDE91E
:1031B0000010074B3A4662206168FFF751FFBDE8F7
:1031C000FC81000019344C430000B4430AD7233C6F
:1031D000CDCC4C3E70B588B00446204600F05CFD76
:1031E00005462A460B4608A16846FDF71BF86846C7
:1031F000FDF7DCF885B24FF0FF332A4669460448F4
:10320000FFF7BAFB08B070BD252E32662C00000017
:10321000F800002070B505460C46612D30D1002C19
:103220000DDD012291023048FEF7BEFA00224FF474
:1032300000612D48FEF7B8FA2C4800684463002C62
:103240000EDA00224FF480612748FEF7ADFA012222
:10325000D1022548FEF7A8FA60422449096848636C
:1032600074B900224FF480611F48FEF79DFA0122D5
:10327000D1021D48FEF798FA02201C4909684863EC
:10328000622D30D1002C0DDD012211031848FEF70C
:103290008BFA00224FF400511548FEF785FA1348C7
:1032A00000688463002C0EDA00224FF4805110482D
:1032B000FEF77AFA012251030D48FEF775FA6042D3
:1032C0000A490968886374B900224FF4805108489C
:1032D000FEF76AFA012251030548FEF765FA02205B
:1032E00002490968886370BD00100140B0000020E9
:1032F000000C014000B58FB0282105A8FDF775F836
:1033000014216846FDF771F801200590000406902D
:10331000002007900120099002200C90C1030D911C
:103320004FF4E0110E9105A8FEF740FC08B1FDF73F
:10333000FDFF0F20009002200190002002904FF42A
:10334000806003900020049002216846FEF70AFB8B
:1033500008B1FDF7EBFF0FB000BD10B50020FFF77F
:10336000B3FE00216120FFF755FF00216220FFF727
:1033700051FF10BD08B508490968C9084FF47A72B1
:10338000B1FBF2F14143009100BF00BF00994A1E1A
:1033900000920029F9D108BD1C00002030B5026A56
:1033A000056A25F0010505624368846924F070040C
:1033B00024F003040D682C4322F002028D682A4396
:1033C000104DA84200D103E00F4DA84206D100BF26
:1033D00022F00802CD682A4322F00402094DA842D7
:1033E00002D0094DA84207D123F4807323F400735F
:1033F0004D692B438D692B43436084614D68456360
:10340000026230BD002C01400034014030B5026A38
:10341000056A25F4807505624368C46924F0700468
:1034200024F003040D682C4322F400728D6842EAF4
:103430000522124DA84200D103E0114DA84207D148
:1034400000BF22F40062CD6842EA052222F48062C5
:103450000A4DA84202D00A4DA84209D123F4805354
:1034600023F400534D6943EA05138D6943EA0513BC
:103470004360C4614D68C563026230BD002C0140E9
:103480000034014030B5036A056A25F480550562B1
:103490004468C26922F4E04222F440720D6842EAB4
:1034A000052223F400538D6843EA0533084DA842F2
:1034B00002D0084DA84204D124F480444D6944EA66
:1034C00085144460C2614D680564036230BD00002C
:1034D000002C0140003401400A46816821F070014F
:1034E00042F0070319438160704730B50B4614461C
:1034F000026A056A25F001050562816921F0F00183
:1035000041EA041122F00A021A438161026230BDCD
:1035100030B50B461446026A056A25F010050562AF
:10352000816921F4704141EA043122F0A00242EAAB
:1035300003128161026230BD70B5044621680969D9
:1035400021F44051E2681143226811612269A168A7
:103550001143626941EA02052168C96841F20C62BF
:10356000914329432268D1602168496921F440715F
:10357000A2691143226851612D4A2168914202D10A
:10358000FEF7CCFA01E0FEF7B9FA00EBC00101EB5F
:10359000001162689200B1FBF2F100EBC00202EB95
:1035A000001263689B00B2FBF3F26423B2FBF3F2F8
:1035B00002EBC20303EB0212A1EB8201322202EB07
:1035C00001116422B1FBF2F101F0F00100EBC00245
:1035D00002EB001263689B00B2FBF3F26423B2FBC0
:1035E000F3F201EB021200EBC00101EB0011636882
:1035F0009B00B1FBF3F100EBC00303EB0013666823
:10360000B600B3FBF6F36426B3FBF6F303EBC30695
:1036100006EB0313A1EB8301322303EB01116423B7
:10362000B1FBF3F101F00F0111442268916070BD0C
:103630000038014000BF00BF02680C3252E8002F82
:1036400022F4907102680C3242E80013002BF3D18F
:1036500000BF00BF00BF0268143252E8002F22F002
:1036600001010268143242E80013002BF3D100BFBD
:10367000016B01290ED100BF00BF02680C3252E875
:10368000002F22F0100102680C3242E80013002BD8
:10369000F3D100BF202180F8421000210163704760
:1036A0002DE9F84304460D4617469846089E31E03A
:1036B000701C70B3FEF77EF8A0EB0800B04200D893
:1036C00016B90320BDE8F8832068C06800F0040044
:1036D000F8B1802D1ED0402D1CD020680068C0F3AA
:1036E000C000B0B100BF00200090206800680090CA
:1036F00020684068009000BF00BF2046FFF79AFF97
:103700000820606400BF002084F8400000BF012052
:10371000D8E7FFE7206800682840A84201D10120CF
:1037200000E00020B842C3D00020CBE710B500284D
:1037300004DB0A07130E054A135406E00A07140EA9
:10374000034A00F00F031B1FD45410BD00E400E037
:1037500018ED00E002480068C0F302207047000046
:103760000CED00E0490050EAC12018BF04204A0DCA
:1037700018BF40F0010040F2FF72B2EB515F08BF8A
:1037800040F00200012808BF0520704730380A28A1
:1037900001D201207047002070470000FEF71CF89E
:1037A000FFF7A8FDFFF74AF9FFF7D6FAFFF7EAF9A6
:1037B000FFF73AFAFFF75EFA00213248FEF7D4FF2E
:1037C00004213048FEF7D0FF00212F48FEF7CCFF40
:1037D00056E02E480078FFF7A1FB2C4908700846F8
:1037E000007801284CD12A48FEF734FD29480068AA
:1037F000002809DD2748006840F6B831884203DC1C
:1038000025492648FFF7FEFB2248006840F6B831FC
:1038100088420BDD1F48006840F6AC51884205DC49
:10382000FFF79BFD00201C490860486019480068AC
:1038300040F6AC5188420ADD1648006841F27071CA
:10384000884204DC144A16491648FFF793FC1148D5
:10385000006841F27071884201DDFFF77EFD0E497C
:103860000868114900F0B2FA0546104900F0E0FB83
:1038700004462046FFF7AEFCC820FDF75BFD00BF05
:10388000A7E70000B0000020200000200C0000206E
:103890006800002000000020040000201934CC4300
:1038A0000000964300007042000036440000B4431C
:1038B00010B500290AD00878002807D005487844B8
:1038C000FDF718F9002801D0002010BD0248784407
:1038D00010BD00004E0B0000460B000021F000421E
:1038E000A2F16052B2F5801F01F0004328BFD2F16F
:1038F0007F6C0BD95FEA001C43EAC20242EB5070B6
:1039000018BF704728BF20F001007047B2F5801F34
:10391000BCBF184670474FEA410C1CF5001F02D28D
:10392000084600F04CBC70B500F062F90000008958
:10393000FFF7F6BF4FF00040A0F580007047000091
:103940002DE9C04130B4DFF8A0C23CEA111418BF21
:103950003CEA131400F0EC8081EA03051CEA111420
:1039600044EAD57418BF1CEA131500F0C780A4EB15
:1039700005044FF0004545EAC12145EAC32341EA69
:10398000505143EA525304F17F74994204F50034D4
:103990004FEAC0204FEAC22208BF904200F09C804C
:1039A0004FEA13650FF24016765D4FEA134506FBAA
:1039B00005F7C7F1807706FB07F74FEAD737A7FB74
:1039C00003687642C8F58038A7FB06CE38BFA8F159
:1039D000010807FB08E64FF0000EA6FB028CE6FB91
:1039E00003CEDCF1000CCEF1004E38BFAEF1010E7B
:1039F000A6FB0C584FF000074FF00005E6FB0E87C2
:103A0000A1FB08C6A0FB07CE16EB0E0645F100058C
:103A1000E1FB076515F1E04E7EBFA4F580345FEA57
:103A200046066D4116F1800745F100054FEA17275C
:103A30004FEA066647EA0567A6F1DE46B6F1805F03
:103A40004FEA15251FD9384624F0010C05EBC47147
:103A5000BCF1FE6F01EB0C1102D8F0BCBDE8008197
:103A600024425CBF01F5801E9EEAC47F02D4F0BCF4
:103A7000BDE80081244238D4F0BCA1F1C041BDE8CA
:103A8000004100F003B94FEAD22242EA43524FEA22
:103A9000D323A7FB02864FEAD02040EA415007FB20
:103AA00003661EEA0E0F4FEAD12105FB026658BFDE
:103AB000A6EB0056B6EB00564FEA520E4EEAC37E16
:103AC00018EB0E0E56EB530EBDD518EB02085E41F7
:103AD0007F1C55F10005B6E74FF480154FF0000745
:103AE0004FF000064FF00008ADE7F0BC4FF00000CB
:103AF00001F1C04101F00041BDE8008111EA0C1F55
:103B00000CEA131500D00CE013EA0C1F00F025801E
:103B10004FF00000F0BC81EA030101F00041BDE874
:103B20000081F0BCBDE8004181EA030100F0AEB8BD
:103B3000F0BCBDE8004170B500F05AF8097EFC3ECB
:103B400000F007B881EA03014FF0000001F00041E6
:103B5000704781EA030100F099B8F0BCBDE800416C
:103B60004FF0000021497047FFFDFBF9F7F5F4F233
:103B7000F0EEEDEBE9E8E6E4E3E1E0DEDDDBDAD808
:103B8000D7D5D4D3D1D0CFCDCCCBCAC8C7C6C5C466
:103B9000C2C1C0BFBEBDBCBBBAB9B8B7B6B5B4B37D
:103BA000B2B1B0AFAEADACABAAA9A8A8A7A6A5A468
:103BB000A3A3A2A1A09F9F9E9D9C9C9B9A9999982C
:103BC0009797969595949393929191908F8F8E8ECF
:103BD0008D8C8C8B8B8A898988888787868585845C
:103BE00084838382828181800000FF070000F87F48
:103BF0000EF1020E2EF0030E5EF8046B364205D471
:103C0000012A43EB030515F5001F12D8012841EBEB
:103C1000010C1CF5001F0CD80ED14FEAD17C15F514
:103C2000001F0CEB4C0C0CF1020C08BF4CEBD37CCE
:103C300004E04FF0080C01E04FEAD37C0CEB4C059C
:103C400026FA05F606F00706B6F1040C06D20EEBCE
:103C5000860CBDE870404CF0010C6047DFE80CF0CA
:103C6000090B02024FF000414FF00000A1F50021C6
:103C700070BD19461046012851EB010418BFD4F558
:103C8000001484BF002001F0004170BD0808A0F5B9
:103C900000114FEA3101704743004FEAD30C4FEA5D
:103CA0003C0C43401FBF40070CF1605113F0FE4F26
:103CB00070471CF0006F03D100200CF000417047EA
:103CC0000CF0004343EA507010B540EACC0000F01D
:103CD00030FA00BF000000924FEA0001FFF7D6BFA4
:103CE0004FF000414FF00000A1F5002170470000A7
:103CF00090EA010F48BF81F0004100F1A882421A0A
:103D00003CBF801A89184FEAD0524FF07F4C1CEA12
:103D1000410FA2EBD15318BF9CEA026F00F03B8029
:103D20004FF0004C4CEA00204CEA012121FA03FC40
:103D300010EB0C0C1ED202F1FF325FEA1C2040EBAC
:103D4000C25038BF70471CF07F0F4FEA400C18BFBD
:103D5000BCF17F4F38BF7047C3F12003994008BFC3
:103D600020F00100BCF17F4F38BF7047A0F1C04088
:103D700000F025BA4FEA3C00000A40EBC25028BFD1
:103D80001CF0FF0F4FEA400CE6D018BFBCF17F4F8C
:103D900038BF7047EAE79CEA026F05D010EA5C0F73
:103DA00008BF00F00040704710B500F0C2F900BF36
:103DB00064FBBE3E401058BFC0F14040491058BFA0
:103DC000C1F140418142EFF3008070474FF47F0C16
:103DD0001CEAD0121EBF1CEAD11392EA0C0F93EA20
:103DE0000C0F00F0858090EA010F48BF42F480720A
:103DF00040F4000C41F400002CF07F4120F07F40A3
:103E000000B58142A2EB03020FF2081CACEB504E4E
:103E1000C0F100009EF800E04FEA4E0E00FB0EFCE1
:103E200038BF49004FEA2C1C02F5FA020CFB0EF3D6
:103E30004FEACE1E4FEA112C4FEAC1210EEB635E12
:103E400042EB22420EFB0CFC4FEA1C5300FB031119
:103E50004FEA112C4FEA01310EFB0CFC4FEADC4C0F
:103E600000FB0C11C14228BF09184CEB03335DF86D
:103E700004EB10EB410143EBC250B2F57C0F38BFAD
:103E8000704729D512F0F00F1CBF00F1C04000F0C0
:103E900000407047008182838485868788898B8C67
:103EA0008D8E8F919293959697999A9C9D9FA0A2A3
:103EB000A3A5A7A8AAACAEB0B2B3B5B7B9BCBEC0F3
:103EC000C2C5C7C9CCCED1D4D7D9DCDFE2E6E9EC94
:103ED000F0F3F7FAFE0000004FEA400C0CF1807C92
:103EE000BCF17E4F28BF7047B0F1C04000F067B909
:103EF00090EA010F0CEAD11348BF42F48072624588
:103F000038BF634507D213F47F0F16D080EA010053
:103F100000F00040704710B500F00BF9097EFC3E40
:103F200000F005B880EA010000F00040704780EA28
:103F3000010000F0004000F042B912F47F0F04BF0E
:103F40000248704780EA010000F039B90000C07FE4
:103F500041000B0ED3F19E0208D950F400034FEA42
:103F6000032323FA02F048BF4042704710B500F027
:103F7000E0F800BF49922480002070476FF00042B3
:103F800082EA200070470000C10DD1F19E0206DBDD
:103F90004FEA002343F0004323FA02F07047004247
:103FA00007D54FEA4001B1F1FE4F02D24FF00000B9
:103FB000704710B500F0BDF849922480002070478A
:103FC0006FEA20007047000050EA010C00F11380F6
:103FD0001CF5000F58BFBCF5000F01D48842704794
:103FE00007D710F5000F58BF11F5000F15D4884200
:103FF0007047894270471CF5000F04D5BCF5000FCF
:10400000F7D5814270474FF0807C1CEB400F38BFE2
:104010001CEB410F01D28142704710B500F089F8C6
:10402000922449004FF000504FF08051FFF7C2BE7C
:104030004FF47F0C1CEAD0121EBF1CEAD11392EA87
:104040000C0F93EA0C0F00F0478090EA010F48BF75
:1040500042F480724FF0004C4CEA00204CEA0121FF
:1040600002EB0302A0FB0113A2F50002002918BF16
:1040700043F001035B0028BF4FEA330342EB2242C7
:104080005FEA132C4CEBC2502EBFBCEB436FB2F572
:104090007C0F70474FEA036CBCF1004F08BF20F063
:1040A0000100B2F57C0F38BF70470BD582F0FF02DC
:1040B00012F5803FC8BF704700F1C040D8BF00F084
:1040C0000040704700F5000C5FEA4C0C48BF704799
:1040D000B0F1C04000F073B890EA010F0CEAD113C0
:1040E00048BF42F48072624538BF634504D280EA1B
:1040F000010000F00040704710B500F01AF800BF52
:104100008900013E00F007B800F009B85FEA410CF1
:104110005FEA1C6C08D080EA010000F050B85FEA4A
:10412000400C5FEA1C6CF6D14FF00040A0F5800017
:1041300070470EF1020E2EF0030E5EF8044B24427F
:1041400004D44FEA4102B2F17F4F11D84FEA400345
:10415000B3F17F4F0CD80ED14FEAD07CB2F17F4F34
:104160000CEB4C0C0CF1020C08BF4CEBD17C04E0C6
:104170004FF0080C01E04FEAD17C0CEB4C0324FA21
:1041800003F404F00704B4F1040C06D20EEB840C23
:10419000BDE810404CF0010C6047DFE80CF0070868
:1041A00002024FF00040A0F5800010BD084642001A
:1041B00018BFD2F1807288BF00F0004010BDFF210F
:1041C00041EAD050C005704751EA000C00F113805D
:1041D0001CF5000F58BFBCF5000F01D48142704799
:1041E00007D711F5000F58BF10F5000F15D4814205
:1041F0007047894270471CF5000F04D5BCF5000FCD
:10420000F7D5884270474FF0807C1CEB410F38BFD8
:104210001CEB400F01D28842704780EA010081EA1E
:10422000000180EA0100FFF7F8BE80F0004090EA4C
:10423000010F7FF564AD81F0004100F008B8000087
:1042400090EA010F48BF81F000413FF558AD421A96
:1042500004D882F00042A0EB020011444FEAD05291
:104260004FF07F4C1CEA410FA2EBD15318BF9CEAE0
:10427000026F4AD04FF0004C4CEA00204CEA01217A
:1042800021FA03FCB0EB0C0C0FD412F0FE0F36D069
:104290005FEA4C001DD5001240EBC25038BF70479A
:1042A0001CF03F0F18BF70470BE0A2F101025FEA5C
:1042B0001C2040EBC25038BF70471CF07F0F18BF66
:1042C0007047C3F12003994014BF401E20F0010045
:1042D000704780084FEA122308BF7047B0FA80FC8D
:1042E000A2EB0C02CCF1280C60FA0CF093EA122F2E
:1042F00004BF00EBC25070474FEAC3707047130A07
:104300005FEADC1008BF7047F6E79CEA026F04D052
:1043100010EA5C0F08BF0020704710B5FFF709FFD7
:1043200040DFF63E81F000407047FCF761B90203C0
:104330000405060708090A0B0C0D0E0F10100102E8
:104340000000000000000000010203040607080945
:10435000000000000102030402400000000000A071
:104360000000000005400000000000C80000000040
:104370000C4000000000409C0000000019400000BC
:104380000020BCBE0000000034400000BFC91B8EEE
:1043900000000004B5400000504BCFD06607E2CFCC
:1043A000010000006C4100003E8251AADFEEA734FC
:1043B00001000000D9420000DCB5A0E23A301F97AE
:1043C000FFFFFFFFB4450000FD25A0C8E9A3C14FD2
:1043D000FFFFFFFFFF3F0000000000800000000023
:1043E000FF3F00000000008000000000284400089B
:1043F00000000020200000006C0100084844000874
:104400002000002098070000880100081C00000020
:1044100043000000F8FFFFFF0C0000000E0000004A
:104420000F0000002E00000000000000000000004F
:10443000000000000000000000000000100000006C
:084440000100000000127A00E7
:0400000508000131BD
:00000001FF
