:020000040800F2
:1000000028080020CD0100082D1E00084D1A000808
:10001000291E0008D3020008B11F000800000000DC
:10002000000000000000000000000000331E000877
:10003000D702000800000000311E0008351E00082D
:10004000E7010008E7010008E7010008E7010008F0
:10005000E7010008E7010008E7010008E7010008E0
:10006000E7010008E7010008E7010008E7010008D0
:10007000E7010008E7010008E7010008E7010008C0
:10008000E7010008E7010008E7010008E7010008B0
:10009000E7010008E7010008E7010008E7010008A0
:1000A000E7010008E7010008E7010008E701000890
:1000B000E7010008E7010008E7010008E701000880
:1000C000E7010008E7010008E7010008E701000870
:1000D000E7010008E7010008E7010008E701000860
:1000E000E7010008E7010008E7010008E701000850
:1000F000E7010008E7010008E7010008E701000840
:10010000E7010008E7010008E7010008E70100082F
:10011000E7010008E7010008411E0008E7010008A8
:10012000E7010008E7010008E7010008E70100080F
:1001300000F002F800F03AF80AA090E8000C8244BF
:100140008344AAF10107DA4501D100F02FF8AFF29C
:10015000090EBAE80F0013F0010F18BFFB1A43F0A5
:1001600001031847B02C0000D02C0000103A24BF27
:1001700078C878C1FAD8520724BF30C830C144BF0C
:1001800004680C607047000000230024002500264E
:10019000103A28BF78C1FBD8520728BF30C148BFEA
:1001A0000B6070471FB51FBD10B510BD00F058F8AB
:1001B0001146FFF7F7FF02F08DF900F076F803B46F
:1001C000FFF7F2FF03BC00F07DF80000094880470C
:1001D00009480047FEE7FEE7FEE7FEE7FEE7FEE729
:1001E000FEE7FEE7FEE7FEE704480549054A064B41
:1001F000704700003D1E0008310100082802002061
:100200002808002028040020280400204FF00002C5
:1002100000B5134694469646203922BFA0E80C50FC
:10022000A0E80C50B1F12001BFF4F7AF090728BFD7
:10023000A0E80C5048BF0CC05DF804EB890028BF53
:1002400040F8042B08BF704748BF20F8022B11F07C
:10025000804F18BF00F8012B7047704770477047F8
:10026000754600F02BF8AE4605006946534620F06F
:100270000700854618B020B5FFF7B6FFBDE820405F
:100280004FF000064FF000074FF000084FF0000B52
:1002900021F00701AC46ACE8C009ACE8C009ACE805
:1002A000C009ACE8C0098D46704710B50446AFF3ED
:1002B00000802046BDE81040FFF781BF004870472E
:1002C000C401002001491820ABBEFEE72600020051
:1002D000704700BFFEE7704772B600BFFEE7000040
:1002E0002DE9F847024600239C467BE14FF00108C8
:1002F00008FA03F4D1F8008008EA0400A0427DD196
:10030000DFF8F4A2D1F80480A8EB0A09D0453AD06E
:1003100014DCB8F1030F50D009DCB8F1000F31D074
:10032000B8F1010F1CD0B8F1020F49D120E0B8F1AB
:10033000110F18D0B8F1120F42D11EE0B9F5881F85
:1003400025D006DCB9F5803F20D0B9F5801F37D124
:100350001AE0B9F5001F18D0B9F5041F30D117E025
:10036000D1F80CC02DE0D1F80C8008F1040C28E085
:10037000D1F80C8008F1080C23E0D1F80C8008F1CA
:100380000C0C1EE000BF00BF00BF00BF00BF00BFDD
:10039000D1F80880B8F1000F02D14FF0040C0BE047
:1003A000D1F80880B8F1010F03D14FF0080C1461A7
:1003B00002E04FF0080C546103E04FF0000C00E045
:1003C00000BF00BFFF2801D8904601E002F10408F9
:1003D0004646FF2802D84FEA830803E0A3F1080845
:1003E0004FEA88084746D6F800804FF00F0909FA0F
:1003F00007F928EA09080CFA07F900E07AE048EA68
:100400000908C6F80080D1F8048008F08058B8F1D7
:10041000805F6FD100BFDFF8E481D8F8188048F022
:100420000108DFF8D891C9F81880C846D8F81880B4
:1004300008F00108CDF8008000BF00BF4FEAB938CE
:100440004FEA930958F829504FEA83784FEA187910
:100450004FF00F0808FA09F825EA0805DFF8A0812F
:10046000424502D14FF0000824E0DFF89881424570
:1004700002D14FF001081DE0DFF88C81424502D126
:100480004FF0020816E0DFF88481424502D14FF0B8
:1004900003080FE0DFF87881424502D14FF00408ED
:1004A00008E0DFF87081424502D14FF0050801E015
:1004B0004FF006084FEA83794FEA197908FA09F8EC
:1004C00048EA0505DFF850814FEA930948F82950BA
:1004D000D1F8048008F48018B8F5801F0BD1DFF83C
:1004E0003C81D8F8008048EA0008DFF83091C9F86C
:1004F00000800AE075E0DFF82481D8F8008028EA5F
:100500000008DFF81891C9F80080D1F8048008F4D9
:100510000018B8F5001F0ED1DFF8008108F10408BB
:10052000D8F8008048EA0008DFF8F09009F10409E3
:10053000C9F800800DE0DFF8E48008F10408D8F87D
:10054000008028EA0008DFF8D49009F10409C9F80E
:100550000080D1F8048008F40038B8F5003F0ED1CF
:10056000DFF8B880A8F10408D8F8008048EA00084D
:10057000DFF8A890A9F10409C9F800800DE0DFF8C0
:100580009C80A8F10408D8F8008028EA0008DFF869
:100590008C90A9F10409C9F80080D1F8048008F40E
:1005A0008038B8F5803F0ED1DFF87080A8F10808D8
:1005B000D8F8008048EA0008DFF86090A9F108093F
:1005C000C9F800800DE0DFF85480A8F10808D8F8D9
:1005D000008028EA0008DFF84490A9F10809C9F86A
:1005E00000805B1CD1F8008028FA03F8B8F1000FF6
:1005F0007FF47CAEBDE8F8870000111000100240C7
:1006000000080140000C01400010014000140140AE
:1006100000180140001C014008000140080401408E
:100620000AB1016101E00B040361704701480068F1
:10063000704700000400002003480068034909785F
:100640000844014908607047040000200C000020A5
:1006500010B50848006840F0100006490860032003
:1006600000F0A8F80F2000F007F800F02BF80020A9
:1006700010BD00000020024070B504460E4800780E
:100680004FF47A71B1FBF0F00C490968B1FBF0F559
:10069000284600F0F9FB08B1012070BD102C07D2EC
:1006A00000222146501E00F047F80548046001E092
:1006B0000120F2E70020F0E70C00002010000020ED
:1006C0000800002008B500BF1148806940F0010013
:1006D0000F4988610846806900F00100009000BF62
:1006E00000BF00BF0846C06940F08050C86108469E
:1006F000C06900F08050009000BF00BF00BF0549F6
:10070000486820F0E06040F00070486000BF08BD1D
:10071000001002400000014001460846002809DBA5
:1007200000F01F0301229A4043099B0003F1E023DC
:10073000C3F8002100BF70472DE9F05F80460D46E9
:100740001646002701F0BEFE074639462A463346C4
:1007500001F00700C0F1070ABAF1040F02D94FF007
:10076000040A01E0C0F1070AD14600F1040ABAF117
:10077000070F02D24FF0000A01E0A0F1030AD446AD
:100780004FF0010A0AFA09FAAAF1010A0AEA020A72
:100790000AFA0CFA4FF0010B0BFA0CFBABF1010B50
:1007A0000BEA030B4AEA0B042146404601F076FEB1
:1007B000BDE8F09F00BF00F00702064B19684FF636
:1007C000FF031940044B0B4343EA0221014B19601C
:1007D00000BF70470CED00E00000FA0570B504465C
:1007E0000D460CB9012070BD5A48006800F00700A2
:1007F000A8420ED25748006820F007002843554908
:1008000008600846006800F00700A84201D00120F7
:10081000E9E7207800F0020002281DD1207800F0DE
:100820000400042805D14C48406840F4E0604A497F
:100830004860207800F00800082805D14648406844
:1008400040F46050444948604348406820F0F0005C
:10085000A168084340494860207800F0010078B35F
:100860006068012806D13C48006800F4003090B967
:100870000120B8E76068022806D13748006800F018
:10088000007040B90120AEE73348006800F0020074
:1008900008B90120A7E73048406820F003006168EC
:1008A00008432D494860FFF7C1FE064609E0FFF7FF
:1008B000BDFE801B41F28831884202D9032092E7B5
:1008C00007E02548406800F00C006168B0EB810F3C
:1008D000EDD12048006800F00700A8420ED91D485D
:1008E000006820F0070028431A490860084600689D
:1008F00000F00700A84201D0012074E7207800F042
:100900000400042807D11448406820F4E060E1683E
:10091000084311494860207800F00800082808D1F1
:100920000D48406820F46050216940EAC1000A493E
:10093000486000F03FF808494968C1F30311074ACD
:10094000515CC8400649086006480068FFF794FEFD
:10095000002048E70020024000100240FC2D000863
:1009600010000020080000200148006870470000C7
:100970001000002000B5FFF7F7FF04494968C1F3F4
:100980000221034A515CC84000BD00000010024033
:100990000C2E000800B5FFF7E7FF04494968C1F3D2
:1009A000C221034A515CC84000BD00000010024053
:1009B0000C2E000870B50021002200240023002026
:1009C000134D696801F00C05EDB1042D02D0082D1E
:1009D0001AD101E00F4819E00F4DC1F38346AB5D1A
:1009E00001F4803555B10A4D6D68C5F340450B4E95
:1009F000725D084D5D43B5FBF2F402E0084D03FB68
:100A000005F4204602E000BF024800BF00BF70BDF1
:100A10000010024000127A00EA2D0008FA2D0008AA
:100A200000093D00F8B504460CB90120F8BD207856
:100A300000F00100002878D0F848406800F00C0071
:100A400004280CD0F548406800F00C00082811D1AB
:100A5000F248406800F48030B0F5803F0AD1EF489A
:100A6000006800F4003000285FD0606800285CD186
:100A70000120DBE700BF6068B0F5803F06D1E748A2
:100A8000006840F48030E549086028E0606858B9A3
:100A9000E248006820F48030E049086008460068B9
:100AA00020F4802008601AE06068B0F5A02F0BD118
:100AB000DA48006840F48020D84908600846006899
:100AC00040F4803008600AE0D448006820F48030A8
:100AD000D24908600846006820F48020086000BF02
:100AE000606888B1FFF7A2FD054606E0FFF79EFDAE
:100AF000401B642801D9032098E7C848006800F427
:100B000000300028F2D010E0FFF790FD054606E027
:100B1000FFF78CFD401B642801D9032086E7BF48FE
:100B2000006800F400300028F2D1207800F00200C4
:100B3000022857D1B948406800F00C0050B1B748BE
:100B4000406800F00C00082818D1B448406800F450
:100B5000803098B9B148006800F0020020B12069E7
:100B6000012801D0012061E7AC48006820F0F800BE
:100B7000616940EAC100A949086033E02069E8B131
:100B80000120A7490860FFF751FD054606E0FFF781
:100B90004DFD401B022801D9032047E79F4800680C
:100BA00000F002000028F2D09C48006820F0F80015
:100BB000616940EAC1009949086013E00020984942
:100BC0000860FFF733FD054606E0FFF72FFD401BE9
:100BD000022801D9032029E79048006800F00200AC
:100BE0000028F2D1207800F0080008282DD1A06953
:100BF000B8B101208B490860FFF718FD054606E0F3
:100C0000FFF714FD401B022801D903200EE783489B
:100C1000406A00F002000028F2D0012001F0DEFA64
:100C200013E000207F490860FFF700FD054606E05D
:100C3000FFF7FCFC401B022801D90320F6E67748A9
:100C4000406A00F002000028F2D1207800F0040091
:100C5000042873D100277148C06900F0805070B932
:100C600000BF6E48C06940F080506C49C8610846BA
:100C7000C06900F08050009000BF00BF01276A48A3
:100C8000006800F48070B0B96748006840F4807074
:100C900065490860FFF7CAFC054606E0FFF7C6FC99
:100CA000401B642801D90320C0E65F48006800F4B7
:100CB00080700028F2D000BFE068012806D15748B4
:100CC000006A40F001005549086227E0E06858B921
:100CD0005248006A20F00100504908620846006A44
:100CE00020F00400086219E0E06805280BD14B48A9
:100CF000006A40F00400494908620846006A40F072
:100D0000010008620AE04548006A20F001004349FA
:100D100008620846006A20F00400086200BFE0682C
:100D2000A0B1FFF783FC054609E0FFF77FFC401BFD
:100D300041F28831884202D9032077E622E0374821
:100D4000006A00F002000028EFD012E0FFF76EFC0E
:100D5000054608E0FFF76AFC401B41F288318842F3
:100D600001D9032062E62D48006A00F00200002845
:100D7000F0D1012F05D12948C06920F080502749C2
:100D8000C86100BFE069C8B32448406800F00C00A7
:100D9000082860D0E069022848D100202049086670
:100DA000FFF744FC054606E0FFF740FC401B022825
:100DB00001D903203AE61948006800F000700028C5
:100DC000F2D1206AB0F5803F07D11448406820F482
:100DD0000030A168084311494860D4E9080108437C
:100DE0000E49496821F4741108430C4948600120F8
:100DF0000B490866FFF71AFC054607E03DE0FFF7E0
:100E000015FC401B022801D903200FE603480068A7
:100E100000F000700028F2D02FE000000010024027
:100E20000000424280044242007000400020144909
:100E30000866FFF7FBFB054606E0FFF7F7FB401BE4
:100E4000022801D90320F1E50E48006800F0007087
:100E50000028F2D111E0E069012800D1E6E5094857
:100E6000466806F48031206A814204D106F470118C
:100E7000606A814201D00120D8E50020D6E500005B
:100E8000000042420010024070B504462546681E2C
:100E9000B0F1807F01D301200FE0681E4FF0E02108
:100EA00048610F214FF0FF3001F0F8FA00204FF0B9
:100EB000E021886107200861002070BD70477047FD
:100EC00010B50346002200BF93F83C00012801D171
:100ED000022010BD012083F83C0000BF22F0FF007B
:100EE000CC6840EA040222F440708C6840EA0402B4
:100EF00022F480604C6840EA040222F400600C682E
:100F000040EA040222F480500C6940EA040222F410
:100F100000504C6940EA040222F48040CC6940EA67
:100F200004021868426400BF002083F83C0000BF40
:100F300000BFCEE730B502460B4600BF92F83C003A
:100F4000012801D1022030BD012082F83C0000BF01
:100F5000022082F83D00106844681068816824F01F
:100F600070041868044310684460144D1068A84267
:100F700013D0134D1068A8420FD01068B0F1804F05
:100F80000BD0104D1068A84207D00F4D1068A84232
:100F900003D00E4D1068A84205D121F08001586899
:100FA000014310688160012082F83D0000BF0020ED
:100FB00082F83C0000BF00BFC5E70000002C0140E4
:100FC000003401400004004000080040000C0040D4
:100FD00010B504460CB9012010BD94F83D0028B9A5
:100FE000002084F83C00204600F026F8022084F817
:100FF0003D00211D206800F02BFF012084F84600F1
:1010000000BF84F83E0001213F20015540200155DA
:101010004120015500BF00BF012084F84200432059
:101020000155442001554520015500BF012084F899
:101030003D000020D0E7000038B504461F49206875
:1010400088420DD100BF1E48C06940F002001C4913
:10105000C8610846C06900F00200009000BF2CE0A3
:1010600018492068884216D100BF1548C06940F071
:1010700010001349C8610846C06900F010000090D4
:1010800000BF00BF002203213620FFF755FB3620AA
:10109000FFF742FB11E00C49206888420DD100BFE8
:1010A0000748806940F40050054988610846806916
:1010B00000F40050009000BF00BF38BD00040040A5
:1010C000001002400010004000340140014691F839
:1010D0003D00012801D001207047022081F83D0029
:1010E0000868C06840F001000B68D860164B0868BB
:1010F000984213D0154B086898420FD00868B0F199
:10110000804F0BD0124B0868984207D0114B0868EB
:10111000984203D0104B086898420CD10868806848
:1011200000F00702062A0CD00868006840F00100B1
:101130000B68186005E00868006840F001000B6863
:1011400018600020C8E70000002C01400034014076
:101150000004004000080040000C00402DE9F04170
:1011600004460D46002700BF94F83C00012802D138
:101170000220BDE8F081012084F83C0000BF02207D
:1011800084F83D002068866826F0770626F47F46BE
:10119000206886602868502833D00CDC202850D086
:1011A00004DC00284BD0102851D149E0302849D028
:1011B00040284CD139E060282DD0702807D0B0F5F8
:1011C000805F03D0B0F5005F41D10DE041E0D5E98B
:1011D00002136A68206800F0A2FE2068866846F064
:1011E00077062068866034E0D5E902136A682068D3
:1011F00000F095FE2068806840F480402168886097
:1012000027E0EA686968206801F0A3F850212068A7
:1012100001F096F81DE0EA686968206801F0ACF812
:101220006021206801F08CF813E0EA6869682068A2
:1012300001F08FF84021206801F082F809E000BF3A
:1012400000BF00BF2968206801F07AF801E001279B
:1012500000BF00BF012084F83D0000BF002084F8DB
:101260003C0000BF384684E72DE9F04104460D46B6
:1012700014B90120BDE8F08194F83D0028B90020A0
:1012800084F83C00204600F051F8022084F83D002C
:101290002068806844F20701884321688860211D26
:1012A000206800F0D5FD2068D0F8088020688669A5
:1012B0002068076A286840EA080840F2033086433D
:1012C000A969A86840EA0120064340F60C4086431D
:1012D0004FF2F0008643E969E86840EA01200643DE
:1012E00028690001296A40EA0130064327F02207F5
:1012F0006969686840EA011007432068C0F80880FF
:101300002068866120680762012084F8460084F81E
:101310003E0001213F200155012084F84200432076
:101320000155012084F83D000020A3E710B586B0E8
:1013300004460020029003900490059029492068FB
:10134000884224D100BF2848C06940F004002649E3
:10135000C8610846C06900F00400019000BF00BFEA
:1013600000BF0846806940F008008861084680692F
:1013700000F00800019000BF00BFC02002900020D4
:101380000390049002A91948FEF7AAFF27E0184924
:101390002068884223D100BF1348C06940F008008C
:1013A0001149C8610846C06900F00800019000BFFB
:1013B00000BF00BF0846806940F00400886108460D
:1013C000806900F00400019000BF00BF032002907C
:1013D00000200390049002A90648FEF781FF06B0A2
:1013E00010BD00000008004000100240000C014049
:1013F000000C0040000801402DE9F04304460D4672
:1014000094F83E603F20075D94F84280432010F836
:1014100004906DB9012E02D1B8F1010F02D0012064
:10142000BDE8F083022084F83E0084F8420025E005
:10143000042D0CD1012F02D1B9F1010F01D00120EF
:10144000EEE702213F2001554320015516E0012E11
:1014500007D1012F05D1B8F1010F02D1B9F1010F68
:1014600001D00120DCE7022084F83E0002213F2069
:101470000155022084F842004320015515B1042D86
:101480000CD105E001220021206800F037FD10E0BA
:1014900001220421206800F031FD0AE00122002130
:1014A000206800F02BFD01220421206800F026FDB9
:1014B00000BF00BF2068006840F00100216808609C
:1014C0000020ADE7704770B504462068C568206805
:1014D000066906F00200022819D105F00200022870
:1014E00015D1401F2168086101202077206880699C
:1014F00000F0030018B12046FFF7E4FF05E02046A6
:1015000000F0E4F8204600F098F90020207706F07B
:101510000400042819D105F00400042815D1C043A3
:1015200021680861022020772068806900F44070FB
:1015300018B12046FFF7C6FF05E0204600F0C6F8C8
:10154000204600F07AF90020207706F008000828ED
:1015500019D105F00800082815D1C0432168086199
:10156000042020772068C06900F0030018B12046ED
:10157000FFF7A8FF05E0204600F0A8F8204600F09D
:101580005CF90020207706F01000102819D105F032
:101590001000102815D1C043216808610820207769
:1015A0002068C06900F4407018B12046FFF78AFF38
:1015B00005E0204600F08AF8204600F03EF90020C1
:1015C000207706F0010048B105F0010030B16FF05E
:1015D000010021680861204600F0AAF906F08000A9
:1015E000802809D105F08000802805D1C0432168FA
:1015F00008612046FFF762FC06F04000402809D150
:1016000005F04000402805D1C0432168086120460C
:1016100000F09CF906F02000202809D105F02000F8
:10162000202805D1C043216808612046FFF747FC08
:1016300070BD000010B586B00446002002900390F3
:10164000049005901C492068884217D100BF1B48B0
:10165000806940F00400194988610846806900F0FB
:101660000400019000BF00BF4020029002200390C0
:10167000059002A91248FEF733FE1AE011492068CE
:10168000884216D100BF0D48806940F010000B4918
:1016900088610846806900F01000019000BF00BF1B
:1016A000C020029002200390059002A90648FEF790
:1016B00017FE06B010BD00000004004000100240FC
:1016C00000080140003401400010014070472DE93E
:1016D000F04104460D461646002700BF94F83C0032
:1016E000012802D10220BDE8F081012084F83C00ED
:1016F00000BF36B1042E1BD0082E31D00C2E5ED187
:1017000045E02946206800F07DFD2068806940F0B2
:101710000800216888612068806920F00400216841
:10172000886120688069296908432168886148E0E8
:101730002946206800F0FEFB2068806940F40060C4
:10174000216888612068806920F480602168886150
:1017500020688069296940EA01202168886130E0B9
:101760002946206800F086FD2068C06940F0080026
:101770002168C8612068C06920F004002168C86140
:101780002068C069296908432168C86119E02946B1
:10179000206800F0ABFD2068C06940F4006021685B
:1017A000C8612068C06920F480602168C861206831
:1017B000C069296940EA01202168C86101E0012768
:1017C00000BF00BF00BF002084F83C0000BF3846C7
:1017D00089E710B504460CB9012010BD94F83D000E
:1017E00028B9002084F83C00204600F025F80220AB
:1017F00084F83D00211D206800F02AFB012084F8B8
:10180000460000BF84F83E0001213F2001554020E2
:1018100001554120015500BF00BF012084F842005E
:1018200043200155442001554520015500BF0120AA
:1018300084F83D000020D0E77047704770B504463B
:101840000D4615B994F83E000BE0042D02D13F205F
:10185000005D06E0082D02D14020005D01E041203E
:10186000005D012801D0012070BD1DB9022084F85F
:101870003E000EE0042D03D102213F20015508E077
:10188000082D03D102214020015502E00221412010
:10189000015501222946206800F030FB1F492068CD
:1018A000884203D01E492068884201D1012000E00F
:1018B000002028B12068406C40F400402168486452
:1018C00016492068884213D01549206888420FD0F5
:1018D0002068B0F1804F0BD012492068884207D0B1
:1018E00011492068884203D01049206888420CD1F1
:1018F0002068806800F00706062E0CD0206800687B
:1019000040F001002168086005E02068006840F0B0
:101910000100216808600020A6E70000002C0140BB
:10192000003401400004004000080040000C00406A
:101930000449884204D104490968491C024A1160DB
:1019400070470000EC00002000000020704710B538
:1019500004460CB9012010BDA06900B100E000BF31
:1019600094F8410028B9002084F84000204600F097
:1019700029F8242084F841002068C06820F4005031
:101980002168C860204600F00BFD2068006920F443
:101990009040216808612068406920F02A00216891
:1019A00048612068C06840F400502168C860002089
:1019B0006064202084F8410084F8420000206063C5
:1019C00000BFC8E710B586B004460020029003901F
:1019D000049005901A49206888422ED100BF19480A
:1019E000806940F48040174988610846806900F4A6
:1019F0008040019000BF00BF00BF0846806940F0F2
:101A0000040088610846806900F00400019000BF6E
:101A100000BF48150290022003900320059002A900
:101A20000948FEF75DFC4FF48060029000200390AF
:101A3000049002A90448FEF753FC06B010BD000054
:101A400000380140001002400008014000BFFEE7DE
:101A500000B585B00020019002900390049000BF73
:101A60002D48806940F020002B4988610846806934
:101A700000F02000009000BF00BF00BF0846806952
:101A800040F0040088610846806900F0040000907E
:101A900000BF00BF00BF0846806940F008008861B1
:101AA0000846806900F00800009000BF00BF00BF3A
:101AB0000846806940F0100088610846806900F09F
:101AC0001000009000BF00BF00224FF440511348A7
:101AD000FEF7A6FD00224FF440611148FEF7A0FD7D
:101AE0004FF4405001900120029000200390032009
:101AF000049001A90948FEF7F3FB4FF44060019000
:101B000001200290002003900320049001A90448C2
:101B1000FEF7E6FB05B000BD00100240000C0140DE
:101B20000010014000B58DB0002009900A900B9084
:101B30000C90079008901C216846FEF767FB204830
:101B4000204908604720486000211E48816044F613
:101B50001F61C160002101618161FFF739FA08B19D
:101B6000FEF7BAFB4FF48050099009A91548FFF71A
:101B7000F5FA08B1FEF7B0FB1248FFF72AFE08B1EC
:101B8000FEF7AAFB00200790089007A90D48FFF771
:101B9000D1F908B1FEF7A0FB602000900020019071
:101BA00002900490002269460648FFF790FD08B1B4
:101BB000FEF792FB0348FFF73DFD0DB000BD0000AE
:101BC000000400401400002000B58BB0242102A8BE
:101BD000FEF71CFB0020009001901848184908608F
:101BE000002048600021164881604FF6FF71C160F7
:101BF0000021016180218161012002900020039079
:101C00000120049000200590069007900120089084
:101C1000002009900A9002A90948FFF725FB08B1A6
:101C2000FEF75AFB00200090019069460448FFF738
:101C300081F908B1FEF750FB0BB000BD0008004071
:101C40005C00002000B58BB0242102A8FEF7DEFA6C
:101C50000020009001901848184908600020486052
:101C60000021164881604FF6FF71C16000210161BB
:101C700080218161012002900020039001200490C6
:101C80000020059006900790012008900020099000
:101C90000A9002A90948FFF7E7FA08B1FEF71CFB12
:101CA00000200090019069460448FFF743F908B10D
:101CB000FEF712FB0BB000BD000C0040A40000209A
:101CC0001CB50020009001900E480F490860472085
:101CD000486000210C48816040F2E731C16000217A
:101CE0008161FFF775F908B1FEF7F6FA0020009060
:101CF000019069460448FFF71DF908B1FEF7ECFAB8
:101D00001CBD000000100040EC00002000B595B0A4
:101D1000002011901290139014900F9010901C219D
:101D200008A8FEF773FA20216846FEF76FFA2E48DE
:101D30002E4908604720486000212C4881606321BB
:101D4000C1600021016141618161FFF741F908B182
:101D5000FEF7C2FA4FF48050119011A92348FFF703
:101D6000FDF908B1FEF7B8FA2048FFF732FD08B1D7
:101D7000FEF7B2FA00200F9010900FA91B48FFF752
:101D8000D9F808B1FEF7A8FA602008900020099061
:101D90000A900B900C900D900E90002208A9134809
:101DA000FFF795FC08B1FEF797FA042208A90F483F
:101DB000FFF78DFC08B1FEF78FFA0020009001902C
:101DC0000290039004904FF400500590002007907B
:101DD00069460648FFF774F808B1FEF77DFA034834
:101DE000FFF728FC15B000BD00340140340100208D
:101DF00010B50B480B4908604FF4E13048600021F2
:101E000008488160C16001610C214161002181614C
:101E1000C161FFF79CFD08B1FEF75EFA10BD00003E
:101E2000003801407C01002000BFFEE700BFFEE754
:101E30007047704710B5FEF7FFFB10BD70470000FC
:101E400010B50248FFF73FFB10BD0000EC0000207A
:101E500010B50268244B98420ED0244B98420BD008
:101E6000B0F1804F08D0224B984205D0214B9842C8
:101E700002D0214B984203D122F070024B681A43E2
:101E8000194B98420ED0194B98420BD0B0F1804FAD
:101E900008D0174B984205D0164B984202D0164BEB
:101EA000984203D122F44072CB681A4322F0800397
:101EB0004C6943EA040202608B68C3620B68836268
:101EC000094B984202D0094B984201D10B69036338
:101ED00001234361036903F001031BB1036923F08C
:101EE0000103036110BD0000002C014000340140DB
:101EF0000004004000080040000C004030B501F034
:101F00001F05012404FA05F3046A9C430462046A71
:101F100001F01F0502FA05F52C43046230BD30B50F
:101F20000C46816821F47F4142EA03252543294379
:101F3000816030BD30B5026A056A25F01005056282
:101F40004368846924F4E04424F440740D6844EA4E
:101F5000052422F020028D6842EA0512124DA842A3
:101F600000D103E0114DA84207D100BF22F080024A
:101F7000CD6842EA051222F040020B4DA84202D081
:101F80000A4DA84209D123F4806323F400634D690C
:101F900043EA85038D6943EA8503436084614D68A4
:101FA0008563026230BD0000002C01400034014016
:101FB00000BFFEE72DE9F04704460021204600F06F
:101FC00063FE1DD8204600F0A5FC074600221F4BEB
:101FD00000F0F4FA054600F0BFFA814649461C4875
:101FE00000F086FD06461B4900F0C0FC054600F0E7
:101FF0002BFD1FFA80FA18480068C0F834A000BF13
:102000000021204600F040FD1DD2204600F082FC59
:1020100007460022114B00F0D1FA054600F09CFA69
:10202000814649460A4800F063FD0646094900F02A
:102030005CFE054600F008FD1FFA80FA06480068BD
:10204000C0F834A000BFBDE8F08700000080564013
:1020500000007A440080BB4414000020008056C079
:1020600070B505460C46612D30D1002C0DDD0122E6
:1020700091023048FEF7D4FA00224FF400612D4857
:10208000FEF7CEFA2C4800684463002C0EDA0022DA
:102090004FF480612748FEF7C3FA0122D102254898
:1020A000FEF7BEFA604224490968886374B90022C9
:1020B0004FF480611F48FEF7B3FA0122D1021D4898
:1020C000FEF7AEFA02201C4909684863622D30D140
:1020D000002C0DDD012211031848FEF7A1FA0022A1
:1020E0004FF400511548FEF79BFA134800688463CB
:1020F000002C0EDA00224FF480511048FEF790FABF
:10210000012251030D48FEF78BFA60420A49096823
:10211000886374B900224FF480510848FEF780FAB2
:10212000012251030548FEF77BFA022002490968A3
:10213000886370BD0010014034010020000C014094
:1021400000B58FB0282105A8FEF760F81421684675
:10215000FEF75CF80120059000040690002007902F
:102160000120099002200C90C1030D914FF4E01161
:102170000E9105A8FEF756FC08B1FEF7ADF80F204A
:10218000009002200190002002904FF480600390A4
:102190000020049002216846FEF720FB08B1FEF7FC
:1021A0009BF80FB000BD10B50020FFF703FF002122
:1021B0006120FFF755FF00216220FFF751FF10BD9E
:1021C00010B50020FFF7F6FE14216120FFF748FF4D
:1021D00014216220FFF744FF10BD000008B5084934
:1021E0000968C9084FF47A72B1FBF2F141430091DA
:1021F00000BF00BF00994A1E00920029F9D108BD16
:102200001000002030B5026A056A25F0010505625C
:102210004368846924F0700424F003040D682C439F
:1022200022F002028D682A43104DA84200D103E03B
:102230000F4DA84206D100BF22F00802CD682A4304
:1022400022F00402094DA84202D0094DA84207D14C
:1022500023F4807323F400734D692B438D692B4362
:10226000436084614D684563026230BD002C0140CB
:102270000034014030B5026A056A25F480750562B4
:102280004368C46924F0700424F003040D682C43EF
:1022900022F400728D6842EA0522124DA84200D154
:1022A00003E0114DA84207D100BF22F40062CD68BF
:1022B00042EA052222F480620A4DA84202D00A4D69
:1022C000A84209D123F4805323F400534D6943EA13
:1022D00005138D6943EA05134360C4614D68C56306
:1022E000026230BD002C01400034014030B5036A69
:1022F000056A25F4805505624468C26922F4E0420B
:1023000022F440720D6842EA052223F400538D68DE
:1023100043EA0533084DA84202D0084DA84204D133
:1023200024F480444D6944EA85144460C2614D68D8
:102330000564036230BD0000002C01400034014000
:102340000A46816821F0700142F007031943816059
:10235000704730B50B461446026A056A25F0010540
:102360000562816921F0F00141EA041122F00A02BC
:102370001A438161026230BD30B50B461446026AD1
:10238000056A25F010050562816921F4704141EA72
:10239000043122F0A00242EA03128161026230BDE0
:1023A00070B504462168096921F44051E26811437F
:1023B000226811612269A1681143626941EA02053C
:1023C0002168C96841F20C62914329432268D160B7
:1023D0002168496921F44071A26911432268516161
:1023E0002D4A2168914202D1FEF7D4FA01E0FEF7AE
:1023F000C1FA00EBC00101EB001162689200B1FB71
:10240000F2F100EBC00202EB001263689B00B2FB2A
:10241000F3F26423B2FBF3F202EBC20303EB02120A
:10242000A1EB8201322202EB01116422B1FBF2F135
:1024300001F0F00100EBC00202EB001263689B00A8
:10244000B2FBF3F26423B2FBF3F201EB021200EBF6
:10245000C00101EB001163689B00B1FBF3F100EBDD
:10246000C00303EB00136668B600B3FBF6F3642603
:10247000B3FBF6F303EBC30606EB0313A1EB8301F7
:10248000322303EB01116423B1FBF3F101F00F01DF
:1024900011442268916070BD0038014010B50028D9
:1024A00004DB0A07130E054A135406E00A07140E4C
:1024B000034A00F00F031B1FD45410BD00E400E0DA
:1024C00018ED00E002480068C0F3022070470000E9
:1024D0000CED00E0FEF7BCF8FFF732FEFFF7B8FAAC
:1024E000FFF714FCFFF784FCFFF76EFBFFF7AAFB76
:1024F000FFF718FBFFF7E4FB00211248FFF79EF9F6
:1025000000211148FFF79AF93C211048FEF774FFAB
:102510000F48FEF7DBFD13E00E480068002807DDDA
:102520000C48006840F6B831884201DCFFF748FEED
:102530000848006840F6B831884201DDFFF733FEF5
:10254000EAE7000034010020140000205C000020B5
:10255000EC0000200000002021F00042A2F16052B7
:10256000B2F5801F01F0004328BFD2F17F6C0BD978
:102570005FEA001C43EAC20242EB507018BF70478A
:1025800028BF20F001007047B2F5801FBCBF18467D
:1025900070474FEA410C1CF5001F02D2084600F0BC
:1025A0006EBB70B500F062F900000089FFF7F6BF5E
:1025B0004FF00040A0F58000704700002DE9C041B9
:1025C00030B4DFF8A0C23CEA111418BF3CEA13147F
:1025D00000F0EC8081EA03051CEA111444EAD5748A
:1025E00018BF1CEA131500F0C780A4EB05044FF0D8
:1025F000004545EAC12145EAC32341EA505143EA77
:10260000525304F17F74994204F500344FEAC0201C
:102610004FEAC22208BF904200F09C804FEA136547
:102620000FF24016765D4FEA134506FB05F7C7F13A
:10263000807706FB07F74FEAD737A7FB0368764298
:10264000C8F58038A7FB06CE38BFA8F1010807FB04
:1026500008E64FF0000EA6FB028CE6FB03CEDCF191
:10266000000CCEF1004E38BFAEF1010EA6FB0C58A7
:102670004FF000074FF00005E6FB0E87A1FB08C6F0
:10268000A0FB07CE16EB0E0645F10005E1FB076542
:1026900015F1E04E7EBFA4F580345FEA46066D4139
:1026A00016F1800745F100054FEA17274FEA066645
:1026B00047EA0567A6F1DE46B6F1805F4FEA1525C9
:1026C0001FD9384624F0010C05EBC471BCF1FE6F34
:1026D00001EB0C1102D8F0BCBDE8008124425CBFC4
:1026E00001F5801E9EEAC47F02D4F0BCBDE80081E3
:1026F000244238D4F0BCA1F1C041BDE8004100F053
:1027000003B94FEAD22242EA43524FEAD323A7FB4E
:1027100002864FEAD02040EA415007FB03661EEADA
:102720000E0F4FEAD12105FB026658BFA6EB0056FB
:10273000B6EB00564FEA520E4EEAC37E18EB0E0E71
:1027400056EB530EBDD518EB02085E417F1C55F1C8
:102750000005B6E74FF480154FF000074FF0000674
:102760004FF00008ADE7F0BC4FF0000001F1C041B0
:1027700001F00041BDE8008111EA0C1F0CEA1315BD
:1027800000D00CE013EA0C1F00F025804FF0000091
:10279000F0BC81EA030101F00041BDE80081F0BC1A
:1027A000BDE8004181EA030100F0AEB8F0BCBDE82D
:1027B000004170B500F05AF8097EFC3E00F007B801
:1027C00081EA03014FF0000001F00041704781EA07
:1027D000030100F099B8F0BCBDE800414FF00000E3
:1027E00021497047FFFDFBF9F7F5F4F2F0EEEDEB50
:1027F000E9E8E6E4E3E1E0DEDDDBDAD8D7D5D4D3FF
:10280000D1D0CFCDCCCBCAC8C7C6C5C4C2C1C0BF4A
:10281000BEBDBCBBBAB9B8B7B6B5B4B3B2B1B0AF50
:10282000AEADACABAAA9A8A8A7A6A5A4A3A3A2A134
:10283000A09F9F9E9D9C9C9B9A99999897979695EF
:1028400095949393929191908F8F8E8E8D8C8C8B8B
:102850008B8A898988888787868585848483838213
:10286000828181800000FF070000F87F0EF1020ED8
:102870002EF0030E5EF8046B364205D4012A43EBBA
:10288000030515F5001F12D8012841EB010C1CF5BA
:10289000001F0CD80ED14FEAD17C15F5001F0CEBB0
:1028A0004C0C0CF1020C08BF4CEBD37C04E04FF055
:1028B000080C01E04FEAD37C0CEB4C0526FA05F638
:1028C00006F00706B6F1040C06D20EEB860CBDE846
:1028D00070404CF0010C6047DFE80CF0090B02027D
:1028E0004FF000414FF00000A1F5002170BD1946E6
:1028F0001046012851EB010418BFD4F5001484BF21
:10290000002001F0004170BD0808A0F500114FEA59
:102910003101704743004FEAD30C4FEA3C0C43406F
:102920001FBF40070CF1605113F0FE4F70471CF0C1
:10293000006F03D100200CF0004170470CF0004301
:1029400043EA507010B540EACC0000F052F900BFE5
:10295000000000924FEA0001FFF7D6BF4FF00041A0
:102960004FF00000A1F500217047000090EA010F30
:1029700048BF81F0004100F1CA81421A3CBF801A71
:1029800089184FEAD0524FF07F4C1CEA410FA2EB5E
:10299000D15318BF9CEA026F00F03B804FF0004C0F
:1029A0004CEA00204CEA012121FA03FC10EB0C0C4C
:1029B0001ED202F1FF325FEA1C2040EBC25038BF4A
:1029C00070471CF07F0F4FEA400C18BFBCF17F4FDF
:1029D00038BF7047C3F12003994008BF20F00100C1
:1029E000BCF17F4F38BF7047A0F1C04000F047B93D
:1029F0004FEA3C00000A40EBC25028BF1CF0FF0F1A
:102A00004FEA400CE6D018BFBCF17F4F38BF70478B
:102A1000EAE79CEA026F05D010EA5C0F08BF00F0FD
:102A20000040704710B500F0E4F800BF64FBBE3E04
:102A3000401058BFC0F14040491058BFC1F140415B
:102A40008142EFF300807047C10DD1F19E0206DB99
:102A50004FEA002343F0004323FA02F0704700429C
:102A600007D54FEA4001B1F1FE4F02D24FF000000E
:102A7000704710B500F0BDF84992248000207047DF
:102A80006FEA20007047000050EA010C00F113804B
:102A90001CF5000F58BFBCF5000F01D488427047E9
:102AA00007D710F5000F58BF11F5000F15D4884255
:102AB0007047894270471CF5000F04D5BCF5000F24
:102AC000F7D5814270474FF0807C1CEB400F38BF38
:102AD0001CEB410F01D28142704710B500F089F81C
:102AE000922449004FF000504FF08051FFF7A0BFF3
:102AF0004FF47F0C1CEAD0121EBF1CEAD11392EADD
:102B00000C0F93EA0C0F00F0478090EA010F48BFCA
:102B100042F480724FF0004C4CEA00204CEA012154
:102B200002EB0302A0FB0113A2F50002002918BF6B
:102B300043F001035B0028BF4FEA330342EB22421C
:102B40005FEA132C4CEBC2502EBFBCEB436FB2F5C7
:102B50007C0F70474FEA036CBCF1004F08BF20F0B8
:102B60000100B2F57C0F38BF70470BD582F0FF0231
:102B700012F5803FC8BF704700F1C040D8BF00F0D9
:102B80000040704700F5000C5FEA4C0C48BF7047EE
:102B9000B0F1C04000F073B890EA010F0CEAD11315
:102BA00048BF42F48072624538BF634504D280EA70
:102BB000010000F00040704710B500F01AF800BFA7
:102BC0008900013E00F007B800F009B85FEA410C47
:102BD0005FEA1C6C08D080EA010000F050B85FEAA0
:102BE000400C5FEA1C6CF6D14FF00040A0F580006D
:102BF00070470EF1020E2EF0030E5EF8044B2442D5
:102C000004D44FEA4102B2F17F4F11D84FEA40039A
:102C1000B3F17F4F0CD80ED14FEAD07CB2F17F4F89
:102C20000CEB4C0C0CF1020C08BF4CEBD17C04E01B
:102C30004FF0080C01E04FEAD17C0CEB4C0324FA76
:102C400003F404F00704B4F1040C06D20EEB840C78
:102C5000BDE810404CF0010C6047DFE80CF00708BD
:102C600002024FF00040A0F5800010BD084642006F
:102C700018BFD2F1807288BF00F0004010BDFF2164
:102C800041EAD050C005704751EA000C00F11380B2
:102C90001CF5000F58BFBCF5000F01D481427047EE
:102CA00007D711F5000F58BF10F5000F15D481425A
:102CB0007047894270471CF5000F04D5BCF5000F22
:102CC000F7D5884270474FF0807C1CEB410F38BF2E
:102CD0001CEB400F01D28842704780EA010081EA74
:102CE000000180EA0100FFF7F8BE80F0004090EAA2
:102CF000010F7FF542AE81F0004100F008B80000FE
:102D000090EA010F48BF81F000413FF536AE421A0C
:102D100004D882F00042A0EB020011444FEAD052E6
:102D20004FF07F4C1CEA410FA2EBD15318BF9CEA35
:102D3000026F4AD04FF0004C4CEA00204CEA0121CF
:102D400021FA03FCB0EB0C0C0FD412F0FE0F36D0BE
:102D50005FEA4C001DD5001240EBC25038BF7047EF
:102D60001CF03F0F18BF70470BE0A2F101025FEAB1
:102D70001C2040EBC25038BF70471CF07F0F18BFBB
:102D80007047C3F12003994014BF401E20F001009A
:102D9000704780084FEA122308BF7047B0FA80FCE2
:102DA000A2EB0C02CCF1280C60FA0CF093EA122F83
:102DB00004BF00EBC25070474FEAC3707047130A5C
:102DC0005FEADC1008BF7047F6E79CEA026F04D0A8
:102DD00010EA5C0F08BF0020704710B5FFF709FF2D
:102DE00040DFF63E81F0004070470203040506070D
:102DF00008090A0B0C0D0E0F101001020000000054
:102E0000000000000102030406070809000000009A
:102E100001020304342E000800000020140000000A
:102E20006C010008482E000814000020140800005F
:102E300088010008000000000000000010000000F1
:082E40000100000000127A00FD
:0400000508000131BD
:00000001FF
